{
  "_format": "hh-sol-artifact-1",
  "contractName": "MyERC1155NFT",
  "sourceName": "contracts/erc1155.sol",
  "abi": [
    {
      "inputs": [],
      "stateMutability": "nonpayable",
      "type": "constructor"
    },
    {
      "anonymous": false,
      "inputs": [
        {
          "indexed": true,
          "internalType": "address",
          "name": "account",
          "type": "address"
        },
        {
          "indexed": true,
          "internalType": "address",
          "name": "operator",
          "type": "address"
        },
        {
          "indexed": false,
          "internalType": "bool",
          "name": "approved",
          "type": "bool"
        }
      ],
      "name": "ApprovalForAll",
      "type": "event"
    },
    {
      "anonymous": false,
      "inputs": [
        {
          "indexed": true,
          "internalType": "address",
          "name": "operator",
          "type": "address"
        },
        {
          "indexed": true,
          "internalType": "address",
          "name": "from",
          "type": "address"
        },
        {
          "indexed": true,
          "internalType": "address",
          "name": "to",
          "type": "address"
        },
        {
          "indexed": false,
          "internalType": "uint256[]",
          "name": "ids",
          "type": "uint256[]"
        },
        {
          "indexed": false,
          "internalType": "uint256[]",
          "name": "values",
          "type": "uint256[]"
        }
      ],
      "name": "TransferBatch",
      "type": "event"
    },
    {
      "anonymous": false,
      "inputs": [
        {
          "indexed": true,
          "internalType": "address",
          "name": "operator",
          "type": "address"
        },
        {
          "indexed": true,
          "internalType": "address",
          "name": "from",
          "type": "address"
        },
        {
          "indexed": true,
          "internalType": "address",
          "name": "to",
          "type": "address"
        },
        {
          "indexed": false,
          "internalType": "uint256",
          "name": "id",
          "type": "uint256"
        },
        {
          "indexed": false,
          "internalType": "uint256",
          "name": "value",
          "type": "uint256"
        }
      ],
      "name": "TransferSingle",
      "type": "event"
    },
    {
      "anonymous": false,
      "inputs": [
        {
          "indexed": false,
          "internalType": "string",
          "name": "value",
          "type": "string"
        },
        {
          "indexed": true,
          "internalType": "uint256",
          "name": "id",
          "type": "uint256"
        }
      ],
      "name": "URI",
      "type": "event"
    },
    {
      "inputs": [],
      "name": "Arcsaber11",
      "outputs": [
        {
          "internalType": "uint256",
          "name": "",
          "type": "uint256"
        }
      ],
      "stateMutability": "view",
      "type": "function"
    },
    {
      "inputs": [],
      "name": "astrox88DPro",
      "outputs": [
        {
          "internalType": "uint256",
          "name": "",
          "type": "uint256"
        }
      ],
      "stateMutability": "view",
      "type": "function"
    },
    {
      "inputs": [],
      "name": "astrox88SPro",
      "outputs": [
        {
          "internalType": "uint256",
          "name": "",
          "type": "uint256"
        }
      ],
      "stateMutability": "view",
      "type": "function"
    },
    {
      "inputs": [],
      "name": "astrox99Pro",
      "outputs": [
        {
          "internalType": "uint256",
          "name": "",
          "type": "uint256"
        }
      ],
      "stateMutability": "view",
      "type": "function"
    },
    {
      "inputs": [],
      "name": "astroxnavy",
      "outputs": [
        {
          "internalType": "uint256",
          "name": "",
          "type": "uint256"
        }
      ],
      "stateMutability": "view",
      "type": "function"
    },
    {
      "inputs": [],
      "name": "astroxred",
      "outputs": [
        {
          "internalType": "uint256",
          "name": "",
          "type": "uint256"
        }
      ],
      "stateMutability": "view",
      "type": "function"
    },
    {
      "inputs": [
        {
          "internalType": "address",
          "name": "account",
          "type": "address"
        },
        {
          "internalType": "uint256",
          "name": "id",
          "type": "uint256"
        }
      ],
      "name": "balanceOf",
      "outputs": [
        {
          "internalType": "uint256",
          "name": "",
          "type": "uint256"
        }
      ],
      "stateMutability": "view",
      "type": "function"
    },
    {
      "inputs": [
        {
          "internalType": "address[]",
          "name": "accounts",
          "type": "address[]"
        },
        {
          "internalType": "uint256[]",
          "name": "ids",
          "type": "uint256[]"
        }
      ],
      "name": "balanceOfBatch",
      "outputs": [
        {
          "internalType": "uint256[]",
          "name": "",
          "type": "uint256[]"
        }
      ],
      "stateMutability": "view",
      "type": "function"
    },
    {
      "inputs": [],
      "name": "duora6",
      "outputs": [
        {
          "internalType": "uint256",
          "name": "",
          "type": "uint256"
        }
      ],
      "stateMutability": "view",
      "type": "function"
    },
    {
      "inputs": [
        {
          "internalType": "address",
          "name": "account",
          "type": "address"
        },
        {
          "internalType": "address",
          "name": "operator",
          "type": "address"
        }
      ],
      "name": "isApprovedForAll",
      "outputs": [
        {
          "internalType": "bool",
          "name": "",
          "type": "bool"
        }
      ],
      "stateMutability": "view",
      "type": "function"
    },
    {
      "inputs": [],
      "name": "mintArcsaber11",
      "outputs": [],
      "stateMutability": "nonpayable",
      "type": "function"
    },
    {
      "inputs": [],
      "name": "mintastrox88DPro",
      "outputs": [],
      "stateMutability": "nonpayable",
      "type": "function"
    },
    {
      "inputs": [],
      "name": "mintastrox88SPro",
      "outputs": [],
      "stateMutability": "nonpayable",
      "type": "function"
    },
    {
      "inputs": [],
      "name": "mintastrox99Pro",
      "outputs": [],
      "stateMutability": "nonpayable",
      "type": "function"
    },
    {
      "inputs": [],
      "name": "mintastroxnavy",
      "outputs": [],
      "stateMutability": "nonpayable",
      "type": "function"
    },
    {
      "inputs": [],
      "name": "mintastroxred",
      "outputs": [],
      "stateMutability": "nonpayable",
      "type": "function"
    },
    {
      "inputs": [],
      "name": "mintduora6",
      "outputs": [],
      "stateMutability": "nonpayable",
      "type": "function"
    },
    {
      "inputs": [],
      "name": "name",
      "outputs": [
        {
          "internalType": "string",
          "name": "",
          "type": "string"
        }
      ],
      "stateMutability": "view",
      "type": "function"
    },
    {
      "inputs": [
        {
          "internalType": "address",
          "name": "from",
          "type": "address"
        },
        {
          "internalType": "address",
          "name": "to",
          "type": "address"
        },
        {
          "internalType": "uint256[]",
          "name": "ids",
          "type": "uint256[]"
        },
        {
          "internalType": "uint256[]",
          "name": "amounts",
          "type": "uint256[]"
        },
        {
          "internalType": "bytes",
          "name": "data",
          "type": "bytes"
        }
      ],
      "name": "safeBatchTransferFrom",
      "outputs": [],
      "stateMutability": "nonpayable",
      "type": "function"
    },
    {
      "inputs": [
        {
          "internalType": "address",
          "name": "from",
          "type": "address"
        },
        {
          "internalType": "address",
          "name": "to",
          "type": "address"
        },
        {
          "internalType": "uint256",
          "name": "id",
          "type": "uint256"
        },
        {
          "internalType": "uint256",
          "name": "amount",
          "type": "uint256"
        },
        {
          "internalType": "bytes",
          "name": "data",
          "type": "bytes"
        }
      ],
      "name": "safeTransferFrom",
      "outputs": [],
      "stateMutability": "nonpayable",
      "type": "function"
    },
    {
      "inputs": [
        {
          "internalType": "address",
          "name": "operator",
          "type": "address"
        },
        {
          "internalType": "bool",
          "name": "approved",
          "type": "bool"
        }
      ],
      "name": "setApprovalForAll",
      "outputs": [],
      "stateMutability": "nonpayable",
      "type": "function"
    },
    {
      "inputs": [
        {
          "internalType": "bytes4",
          "name": "interfaceId",
          "type": "bytes4"
        }
      ],
      "name": "supportsInterface",
      "outputs": [
        {
          "internalType": "bool",
          "name": "",
          "type": "bool"
        }
      ],
      "stateMutability": "view",
      "type": "function"
    },
    {
      "inputs": [
        {
          "internalType": "uint256",
          "name": "_tokenid",
          "type": "uint256"
        }
      ],
      "name": "uri",
      "outputs": [
        {
          "internalType": "string",
          "name": "",
          "type": "string"
        }
      ],
      "stateMutability": "pure",
      "type": "function"
    }
  ],
  "bytecode": "0x60806040526040518060400160405280600c81526020017f5765624261646d696e746f6e00000000000000000000000000000000000000008152506003908051906020019062000051929190620000ae565b503480156200005f57600080fd5b506040518060800160405280605c815260200162002ff8605c91396200008b816200009260201b60201c565b50620001c3565b8060029080519060200190620000aa929190620000ae565b5050565b828054620000bc906200018d565b90600052602060002090601f016020900481019282620000e057600085556200012c565b82601f10620000fb57805160ff19168380011785556200012c565b828001600101855582156200012c579182015b828111156200012b5782518255916020019190600101906200010e565b5b5090506200013b91906200013f565b5090565b5b808211156200015a57600081600090555060010162000140565b5090565b7f4e487b7100000000000000000000000000000000000000000000000000000000600052602260045260246000fd5b60006002820490506001821680620001a657607f821691505b60208210811415620001bd57620001bc6200015e565b5b50919050565b612e2580620001d36000396000f3fe608060405234801561001057600080fd5b506004361061014c5760003560e01c80639e708520116100c3578063e3592b391161007c578063e3592b391461032f578063e985e9c514610339578063f242432a14610369578063f4b0deed14610385578063f6b6c587146103a3578063f9c57433146103ad5761014c565b80639e708520146102a5578063a22cb465146102c3578063af86f5f2146102df578063d0d81e52146102fd578063d799c82d14610307578063d93c450a146103115761014c565b80632eb2c2d6116101155780632eb2c2d614610209578063357da6e01461022557806337c1648d146102435780634e1273f41461026157806356d756481461029157806370270ffe1461029b5761014c565b8062fdd58e1461015157806301ffc9a71461018157806306fdde03146101b15780630e89341c146101cf57806321bc14a7146101ff575b600080fd5b61016b60048036038101906101669190611a07565b6103cb565b6040516101789190611a56565b60405180910390f35b61019b60048036038101906101969190611ac9565b610494565b6040516101a89190611b11565b60405180910390f35b6101b9610576565b6040516101c69190611bc5565b60405180910390f35b6101e960048036038101906101e49190611be7565b610604565b6040516101f69190611bc5565b60405180910390f35b610207610635565b005b610223600480360381019061021e9190611e11565b610654565b005b61022d6106f5565b60405161023a9190611a56565b60405180910390f35b61024b6106fa565b6040516102589190611a56565b60405180910390f35b61027b60048036038101906102769190611fa3565b6106ff565b60405161028891906120d9565b60405180910390f35b610299610818565b005b6102a3610837565b005b6102ad610856565b6040516102ba9190611a56565b60405180910390f35b6102dd60048036038101906102d89190612127565b61085b565b005b6102e7610871565b6040516102f49190611a56565b60405180910390f35b610305610876565b005b61030f610894565b005b6103196108b3565b6040516103269190611a56565b60405180910390f35b6103376108b8565b005b610353600480360381019061034e9190612167565b6108d7565b6040516103609190611b11565b60405180910390f35b610383600480360381019061037e91906121a7565b61096b565b005b61038d610a0c565b60405161039a9190611a56565b60405180910390f35b6103ab610a11565b005b6103b5610a30565b6040516103c29190611a56565b60405180910390f35b60008073ffffffffffffffffffffffffffffffffffffffff168373ffffffffffffffffffffffffffffffffffffffff16141561043c576040517f08c379a0000000000000000000000000000000000000000000000000000000008152600401610433906122b0565b60405180910390fd5b60008083815260200190815260200160002060008473ffffffffffffffffffffffffffffffffffffffff1673ffffffffffffffffffffffffffffffffffffffff16815260200190815260200160002054905092915050565b60007fd9b67a26000000000000000000000000000000000000000000000000000000007bffffffffffffffffffffffffffffffffffffffffffffffffffffffff1916827bffffffffffffffffffffffffffffffffffffffffffffffffffffffff1916148061055f57507f0e89341c000000000000000000000000000000000000000000000000000000007bffffffffffffffffffffffffffffffffffffffffffffffffffffffff1916827bffffffffffffffffffffffffffffffffffffffffffffffffffffffff1916145b8061056f575061056e82610a35565b5b9050919050565b60038054610583906122ff565b80601f01602080910402602001604051908101604052809291908181526020018280546105af906122ff565b80156105fc5780601f106105d1576101008083540402835291602001916105fc565b820191906000526020600020905b8154815290600101906020018083116105df57829003601f168201915b505050505081565b606061060f82610a9f565b60405160200161061f9190612451565b6040516020818303038152906040529050919050565b610652336003600160405180602001604052806000815250610c00565b565b61065c610db1565b73ffffffffffffffffffffffffffffffffffffffff168573ffffffffffffffffffffffffffffffffffffffff1614806106a257506106a18561069c610db1565b6108d7565b5b6106e1576040517f08c379a00000000000000000000000000000000000000000000000000000000081526004016106d8906124f0565b60405180910390fd5b6106ee8585858585610db9565b5050505050565b600681565b600281565b60608151835114610745576040517f08c379a000000000000000000000000000000000000000000000000000000000815260040161073c90612582565b60405180910390fd5b6000835167ffffffffffffffff81111561076257610761611c19565b5b6040519080825280602002602001820160405280156107905781602001602082028036833780820191505090505b50905060005b845181101561080d576107dd8582815181106107b5576107b46125a2565b5b60200260200101518583815181106107d0576107cf6125a2565b5b60200260200101516103cb565b8282815181106107f0576107ef6125a2565b5b6020026020010181815250508061080690612600565b9050610796565b508091505092915050565b610835336004600160405180602001604052806000815250610c00565b565b610854336002600160405180602001604052806000815250610c00565b565b600381565b61086d610866610db1565b83836110db565b5050565b600181565b6108923360018060405180602001604052806000815250610c00565b565b6108b1336006600160405180602001604052806000815250610c00565b565b600481565b6108d5336000600160405180602001604052806000815250610c00565b565b6000600160008473ffffffffffffffffffffffffffffffffffffffff1673ffffffffffffffffffffffffffffffffffffffff16815260200190815260200160002060008373ffffffffffffffffffffffffffffffffffffffff1673ffffffffffffffffffffffffffffffffffffffff16815260200190815260200160002060009054906101000a900460ff16905092915050565b610973610db1565b73ffffffffffffffffffffffffffffffffffffffff168573ffffffffffffffffffffffffffffffffffffffff1614806109b957506109b8856109b3610db1565b6108d7565b5b6109f8576040517f08c379a00000000000000000000000000000000000000000000000000000000081526004016109ef906124f0565b60405180910390fd5b610a058585858585611248565b5050505050565b600081565b610a2e336005600160405180602001604052806000815250610c00565b565b600581565b60007f01ffc9a7000000000000000000000000000000000000000000000000000000007bffffffffffffffffffffffffffffffffffffffffffffffffffffffff1916827bffffffffffffffffffffffffffffffffffffffffffffffffffffffff1916149050919050565b60606000821415610ae7576040518060400160405280600181526020017f30000000000000000000000000000000000000000000000000000000000000008152509050610bfb565b600082905060005b60008214610b19578080610b0290612600565b915050600a82610b129190612678565b9150610aef565b60008167ffffffffffffffff811115610b3557610b34611c19565b5b6040519080825280601f01601f191660200182016040528015610b675781602001600182028036833780820191505090505b5090505b60008514610bf457600182610b8091906126a9565b9150600a85610b8f91906126dd565b6030610b9b919061270e565b60f81b818381518110610bb157610bb06125a2565b5b60200101907effffffffffffffffffffffffffffffffffffffffffffffffffffffffffffff1916908160001a905350600a85610bed9190612678565b9450610b6b565b8093505050505b919050565b600073ffffffffffffffffffffffffffffffffffffffff168473ffffffffffffffffffffffffffffffffffffffff161415610c70576040517f08c379a0000000000000000000000000000000000000000000000000000000008152600401610c67906127d6565b60405180910390fd5b6000610c7a610db1565b90506000610c87856114e4565b90506000610c94856114e4565b9050610ca58360008985858961155e565b8460008088815260200190815260200160002060008973ffffffffffffffffffffffffffffffffffffffff1673ffffffffffffffffffffffffffffffffffffffff1681526020019081526020016000206000828254610d04919061270e565b925050819055508673ffffffffffffffffffffffffffffffffffffffff16600073ffffffffffffffffffffffffffffffffffffffff168473ffffffffffffffffffffffffffffffffffffffff167fc3d58168c5ae7397731d063d5bbf3d657854427343f4c083240f7aacaa2d0f628989604051610d829291906127f6565b60405180910390a4610d9983600089858589611566565b610da88360008989898961156e565b50505050505050565b600033905090565b8151835114610dfd576040517f08c379a0000000000000000000000000000000000000000000000000000000008152600401610df490612891565b60405180910390fd5b600073ffffffffffffffffffffffffffffffffffffffff168473ffffffffffffffffffffffffffffffffffffffff161415610e6d576040517f08c379a0000000000000000000000000000000000000000000000000000000008152600401610e6490612923565b60405180910390fd5b6000610e77610db1565b9050610e8781878787878761155e565b60005b8451811015611038576000858281518110610ea857610ea76125a2565b5b602002602001015190506000858381518110610ec757610ec66125a2565b5b60200260200101519050600080600084815260200190815260200160002060008b73ffffffffffffffffffffffffffffffffffffffff1673ffffffffffffffffffffffffffffffffffffffff16815260200190815260200160002054905081811015610f68576040517f08c379a0000000000000000000000000000000000000000000000000000000008152600401610f5f906129b5565b60405180910390fd5b81810360008085815260200190815260200160002060008c73ffffffffffffffffffffffffffffffffffffffff1673ffffffffffffffffffffffffffffffffffffffff168152602001908152602001600020819055508160008085815260200190815260200160002060008b73ffffffffffffffffffffffffffffffffffffffff1673ffffffffffffffffffffffffffffffffffffffff168152602001908152602001600020600082825461101d919061270e565b925050819055505050508061103190612600565b9050610e8a565b508473ffffffffffffffffffffffffffffffffffffffff168673ffffffffffffffffffffffffffffffffffffffff168273ffffffffffffffffffffffffffffffffffffffff167f4a39dc06d4c0dbc64b70af90fd698a233a518aa5d07e595d983b8c0526c8f7fb87876040516110af9291906129d5565b60405180910390a46110c5818787878787611566565b6110d3818787878787611755565b505050505050565b8173ffffffffffffffffffffffffffffffffffffffff168373ffffffffffffffffffffffffffffffffffffffff16141561114a576040517f08c379a000000000000000000000000000000000000000000000000000000000815260040161114190612a7e565b60405180910390fd5b80600160008573ffffffffffffffffffffffffffffffffffffffff1673ffffffffffffffffffffffffffffffffffffffff16815260200190815260200160002060008473ffffffffffffffffffffffffffffffffffffffff1673ffffffffffffffffffffffffffffffffffffffff16815260200190815260200160002060006101000a81548160ff0219169083151502179055508173ffffffffffffffffffffffffffffffffffffffff168373ffffffffffffffffffffffffffffffffffffffff167f17307eab39ab6107e8899845ad3d59bd9653f200f220920489ca2b5937696c318360405161123b9190611b11565b60405180910390a3505050565b600073ffffffffffffffffffffffffffffffffffffffff168473ffffffffffffffffffffffffffffffffffffffff1614156112b8576040517f08c379a00000000000000000000000000000000000000000000000000000000081526004016112af90612923565b60405180910390fd5b60006112c2610db1565b905060006112cf856114e4565b905060006112dc856114e4565b90506112ec83898985858961155e565b600080600088815260200190815260200160002060008a73ffffffffffffffffffffffffffffffffffffffff1673ffffffffffffffffffffffffffffffffffffffff16815260200190815260200160002054905085811015611383576040517f08c379a000000000000000000000000000000000000000000000000000000000815260040161137a906129b5565b60405180910390fd5b85810360008089815260200190815260200160002060008b73ffffffffffffffffffffffffffffffffffffffff1673ffffffffffffffffffffffffffffffffffffffff168152602001908152602001600020819055508560008089815260200190815260200160002060008a73ffffffffffffffffffffffffffffffffffffffff1673ffffffffffffffffffffffffffffffffffffffff1681526020019081526020016000206000828254611438919061270e565b925050819055508773ffffffffffffffffffffffffffffffffffffffff168973ffffffffffffffffffffffffffffffffffffffff168573ffffffffffffffffffffffffffffffffffffffff167fc3d58168c5ae7397731d063d5bbf3d657854427343f4c083240f7aacaa2d0f628a8a6040516114b59291906127f6565b60405180910390a46114cb848a8a86868a611566565b6114d9848a8a8a8a8a61156e565b505050505050505050565b60606000600167ffffffffffffffff81111561150357611502611c19565b5b6040519080825280602002602001820160405280156115315781602001602082028036833780820191505090505b5090508281600081518110611549576115486125a2565b5b60200260200101818152505080915050919050565b505050505050565b505050505050565b61158d8473ffffffffffffffffffffffffffffffffffffffff1661193c565b1561174d578373ffffffffffffffffffffffffffffffffffffffff1663f23a6e6187878686866040518663ffffffff1660e01b81526004016115d3959493929190612b02565b602060405180830381600087803b1580156115ed57600080fd5b505af192505050801561161e57506040513d601f19601f8201168201806040525081019061161b9190612b71565b60015b6116c45761162a612bab565b806308c379a01415611687575061163f612bcd565b8061164a5750611689565b806040517f08c379a000000000000000000000000000000000000000000000000000000000815260040161167e9190611bc5565b60405180910390fd5b505b6040517f08c379a00000000000000000000000000000000000000000000000000000000081526004016116bb90612cd5565b60405180910390fd5b63f23a6e6160e01b7bffffffffffffffffffffffffffffffffffffffffffffffffffffffff1916817bffffffffffffffffffffffffffffffffffffffffffffffffffffffff19161461174b576040517f08c379a000000000000000000000000000000000000000000000000000000000815260040161174290612d67565b60405180910390fd5b505b505050505050565b6117748473ffffffffffffffffffffffffffffffffffffffff1661193c565b15611934578373ffffffffffffffffffffffffffffffffffffffff1663bc197c8187878686866040518663ffffffff1660e01b81526004016117ba959493929190612d87565b602060405180830381600087803b1580156117d457600080fd5b505af192505050801561180557506040513d601f19601f820116820180604052508101906118029190612b71565b60015b6118ab57611811612bab565b806308c379a0141561186e5750611826612bcd565b806118315750611870565b806040517f08c379a00000000000000000000000000000000000000000000000000000000081526004016118659190611bc5565b60405180910390fd5b505b6040517f08c379a00000000000000000000000000000000000000000000000000000000081526004016118a290612cd5565b60405180910390fd5b63bc197c8160e01b7bffffffffffffffffffffffffffffffffffffffffffffffffffffffff1916817bffffffffffffffffffffffffffffffffffffffffffffffffffffffff191614611932576040517f08c379a000000000000000000000000000000000000000000000000000000000815260040161192990612d67565b60405180910390fd5b505b505050505050565b6000808273ffffffffffffffffffffffffffffffffffffffff163b119050919050565b6000604051905090565b600080fd5b600080fd5b600073ffffffffffffffffffffffffffffffffffffffff82169050919050565b600061199e82611973565b9050919050565b6119ae81611993565b81146119b957600080fd5b50565b6000813590506119cb816119a5565b92915050565b6000819050919050565b6119e4816119d1565b81146119ef57600080fd5b50565b600081359050611a01816119db565b92915050565b60008060408385031215611a1e57611a1d611969565b5b6000611a2c858286016119bc565b9250506020611a3d858286016119f2565b9150509250929050565b611a50816119d1565b82525050565b6000602082019050611a6b6000830184611a47565b92915050565b60007fffffffff0000000000000000000000000000000000000000000000000000000082169050919050565b611aa681611a71565b8114611ab157600080fd5b50565b600081359050611ac381611a9d565b92915050565b600060208284031215611adf57611ade611969565b5b6000611aed84828501611ab4565b91505092915050565b60008115159050919050565b611b0b81611af6565b82525050565b6000602082019050611b266000830184611b02565b92915050565b600081519050919050565b600082825260208201905092915050565b60005b83811015611b66578082015181840152602081019050611b4b565b83811115611b75576000848401525b50505050565b6000601f19601f8301169050919050565b6000611b9782611b2c565b611ba18185611b37565b9350611bb1818560208601611b48565b611bba81611b7b565b840191505092915050565b60006020820190508181036000830152611bdf8184611b8c565b905092915050565b600060208284031215611bfd57611bfc611969565b5b6000611c0b848285016119f2565b91505092915050565b600080fd5b7f4e487b7100000000000000000000000000000000000000000000000000000000600052604160045260246000fd5b611c5182611b7b565b810181811067ffffffffffffffff82111715611c7057611c6f611c19565b5b80604052505050565b6000611c8361195f565b9050611c8f8282611c48565b919050565b600067ffffffffffffffff821115611caf57611cae611c19565b5b602082029050602081019050919050565b600080fd5b6000611cd8611cd384611c94565b611c79565b90508083825260208201905060208402830185811115611cfb57611cfa611cc0565b5b835b81811015611d245780611d1088826119f2565b845260208401935050602081019050611cfd565b5050509392505050565b600082601f830112611d4357611d42611c14565b5b8135611d53848260208601611cc5565b91505092915050565b600080fd5b600067ffffffffffffffff821115611d7c57611d7b611c19565b5b611d8582611b7b565b9050602081019050919050565b82818337600083830152505050565b6000611db4611daf84611d61565b611c79565b905082815260208101848484011115611dd057611dcf611d5c565b5b611ddb848285611d92565b509392505050565b600082601f830112611df857611df7611c14565b5b8135611e08848260208601611da1565b91505092915050565b600080600080600060a08688031215611e2d57611e2c611969565b5b6000611e3b888289016119bc565b9550506020611e4c888289016119bc565b945050604086013567ffffffffffffffff811115611e6d57611e6c61196e565b5b611e7988828901611d2e565b935050606086013567ffffffffffffffff811115611e9a57611e9961196e565b5b611ea688828901611d2e565b925050608086013567ffffffffffffffff811115611ec757611ec661196e565b5b611ed388828901611de3565b9150509295509295909350565b600067ffffffffffffffff821115611efb57611efa611c19565b5b602082029050602081019050919050565b6000611f1f611f1a84611ee0565b611c79565b90508083825260208201905060208402830185811115611f4257611f41611cc0565b5b835b81811015611f6b5780611f5788826119bc565b845260208401935050602081019050611f44565b5050509392505050565b600082601f830112611f8a57611f89611c14565b5b8135611f9a848260208601611f0c565b91505092915050565b60008060408385031215611fba57611fb9611969565b5b600083013567ffffffffffffffff811115611fd857611fd761196e565b5b611fe485828601611f75565b925050602083013567ffffffffffffffff8111156120055761200461196e565b5b61201185828601611d2e565b9150509250929050565b600081519050919050565b600082825260208201905092915050565b6000819050602082019050919050565b612050816119d1565b82525050565b60006120628383612047565b60208301905092915050565b6000602082019050919050565b60006120868261201b565b6120908185612026565b935061209b83612037565b8060005b838110156120cc5781516120b38882612056565b97506120be8361206e565b92505060018101905061209f565b5085935050505092915050565b600060208201905081810360008301526120f3818461207b565b905092915050565b61210481611af6565b811461210f57600080fd5b50565b600081359050612121816120fb565b92915050565b6000806040838503121561213e5761213d611969565b5b600061214c858286016119bc565b925050602061215d85828601612112565b9150509250929050565b6000806040838503121561217e5761217d611969565b5b600061218c858286016119bc565b925050602061219d858286016119bc565b9150509250929050565b600080600080600060a086880312156121c3576121c2611969565b5b60006121d1888289016119bc565b95505060206121e2888289016119bc565b94505060406121f3888289016119f2565b9350506060612204888289016119f2565b925050608086013567ffffffffffffffff8111156122255761222461196e565b5b61223188828901611de3565b9150509295509295909350565b7f455243313135353a2061646472657373207a65726f206973206e6f742061207660008201527f616c6964206f776e657200000000000000000000000000000000000000000000602082015250565b600061229a602a83611b37565b91506122a58261223e565b604082019050919050565b600060208201905081810360008301526122c98161228d565b9050919050565b7f4e487b7100000000000000000000000000000000000000000000000000000000600052602260045260246000fd5b6000600282049050600182168061231757607f821691505b6020821081141561232b5761232a6122d0565b5b50919050565b600081905092915050565b7f68747470733a2f2f6261667962656961676132797a7a636b666474646e36327360008201527f7232616175696c336c6c6b7834666475367a6c6861767a6c34326b3335346d6360208201527f67736d2e697066732e647765622e6c696e6b2f00000000000000000000000000604082015250565b60006123be605383612331565b91506123c98261233c565b605382019050919050565b60006123df82611b2c565b6123e98185612331565b93506123f9818560208601611b48565b80840191505092915050565b7f2e6a736f6e000000000000000000000000000000000000000000000000000000600082015250565b600061243b600583612331565b915061244682612405565b600582019050919050565b600061245c826123b1565b915061246882846123d4565b91506124738261242e565b915081905092915050565b7f455243313135353a2063616c6c6572206973206e6f7420746f6b656e206f776e60008201527f6572206e6f7220617070726f7665640000000000000000000000000000000000602082015250565b60006124da602f83611b37565b91506124e58261247e565b604082019050919050565b60006020820190508181036000830152612509816124cd565b9050919050565b7f455243313135353a206163636f756e747320616e6420696473206c656e67746860008201527f206d69736d617463680000000000000000000000000000000000000000000000602082015250565b600061256c602983611b37565b915061257782612510565b604082019050919050565b6000602082019050818103600083015261259b8161255f565b9050919050565b7f4e487b7100000000000000000000000000000000000000000000000000000000600052603260045260246000fd5b7f4e487b7100000000000000000000000000000000000000000000000000000000600052601160045260246000fd5b600061260b826119d1565b91507fffffffffffffffffffffffffffffffffffffffffffffffffffffffffffffffff82141561263e5761263d6125d1565b5b600182019050919050565b7f4e487b7100000000000000000000000000000000000000000000000000000000600052601260045260246000fd5b6000612683826119d1565b915061268e836119d1565b92508261269e5761269d612649565b5b828204905092915050565b60006126b4826119d1565b91506126bf836119d1565b9250828210156126d2576126d16125d1565b5b828203905092915050565b60006126e8826119d1565b91506126f3836119d1565b92508261270357612702612649565b5b828206905092915050565b6000612719826119d1565b9150612724836119d1565b9250827fffffffffffffffffffffffffffffffffffffffffffffffffffffffffffffffff03821115612759576127586125d1565b5b828201905092915050565b7f455243313135353a206d696e7420746f20746865207a65726f2061646472657360008201527f7300000000000000000000000000000000000000000000000000000000000000602082015250565b60006127c0602183611b37565b91506127cb82612764565b604082019050919050565b600060208201905081810360008301526127ef816127b3565b9050919050565b600060408201905061280b6000830185611a47565b6128186020830184611a47565b9392505050565b7f455243313135353a2069647320616e6420616d6f756e7473206c656e6774682060008201527f6d69736d61746368000000000000000000000000000000000000000000000000602082015250565b600061287b602883611b37565b91506128868261281f565b604082019050919050565b600060208201905081810360008301526128aa8161286e565b9050919050565b7f455243313135353a207472616e7366657220746f20746865207a65726f20616460008201527f6472657373000000000000000000000000000000000000000000000000000000602082015250565b600061290d602583611b37565b9150612918826128b1565b604082019050919050565b6000602082019050818103600083015261293c81612900565b9050919050565b7f455243313135353a20696e73756666696369656e742062616c616e636520666f60008201527f72207472616e7366657200000000000000000000000000000000000000000000602082015250565b600061299f602a83611b37565b91506129aa82612943565b604082019050919050565b600060208201905081810360008301526129ce81612992565b9050919050565b600060408201905081810360008301526129ef818561207b565b90508181036020830152612a03818461207b565b90509392505050565b7f455243313135353a2073657474696e6720617070726f76616c2073746174757360008201527f20666f722073656c660000000000000000000000000000000000000000000000602082015250565b6000612a68602983611b37565b9150612a7382612a0c565b604082019050919050565b60006020820190508181036000830152612a9781612a5b565b9050919050565b612aa781611993565b82525050565b600081519050919050565b600082825260208201905092915050565b6000612ad482612aad565b612ade8185612ab8565b9350612aee818560208601611b48565b612af781611b7b565b840191505092915050565b600060a082019050612b176000830188612a9e565b612b246020830187612a9e565b612b316040830186611a47565b612b3e6060830185611a47565b8181036080830152612b508184612ac9565b90509695505050505050565b600081519050612b6b81611a9d565b92915050565b600060208284031215612b8757612b86611969565b5b6000612b9584828501612b5c565b91505092915050565b60008160e01c9050919050565b600060033d1115612bca5760046000803e612bc7600051612b9e565b90505b90565b600060443d1015612bdd57612c60565b612be561195f565b60043d036004823e80513d602482011167ffffffffffffffff82111715612c0d575050612c60565b808201805167ffffffffffffffff811115612c2b5750505050612c60565b80602083010160043d038501811115612c48575050505050612c60565b612c5782602001850186611c48565b82955050505050505b90565b7f455243313135353a207472616e7366657220746f206e6f6e204552433131353560008201527f526563656976657220696d706c656d656e746572000000000000000000000000602082015250565b6000612cbf603483611b37565b9150612cca82612c63565b604082019050919050565b60006020820190508181036000830152612cee81612cb2565b9050919050565b7f455243313135353a204552433131353552656365697665722072656a6563746560008201527f6420746f6b656e73000000000000000000000000000000000000000000000000602082015250565b6000612d51602883611b37565b9150612d5c82612cf5565b604082019050919050565b60006020820190508181036000830152612d8081612d44565b9050919050565b600060a082019050612d9c6000830188612a9e565b612da96020830187612a9e565b8181036040830152612dbb818661207b565b90508181036060830152612dcf818561207b565b90508181036080830152612de38184612ac9565b9050969550505050505056fea264697066735822122020f72777b333b7121df44d5b16725e2007ef9a34000a3c6aed18e351415552da64736f6c6343000809003368747470733a2f2f6261667962656961676132797a7a636b666474646e3632737232616175696c336c6c6b7834666475367a6c6861767a6c34326b3335346d6367736d2e697066732e647765622e6c696e6b2f7b69647d2e6a736f6e",
  "linkReferences": {},
  "deployedLinkReferences": {}
}