{
  "_format": "hh-sol-artifact-1",
  "contractName": "MyERC1155NFT",
  "sourceName": "contracts/erc1155.sol",
  "abi": [
    {
      "inputs": [],
      "stateMutability": "nonpayable",
      "type": "constructor"
    },
    {
      "anonymous": false,
      "inputs": [
        {
          "indexed": true,
          "internalType": "address",
          "name": "account",
          "type": "address"
        },
        {
          "indexed": true,
          "internalType": "address",
          "name": "operator",
          "type": "address"
        },
        {
          "indexed": false,
          "internalType": "bool",
          "name": "approved",
          "type": "bool"
        }
      ],
      "name": "ApprovalForAll",
      "type": "event"
    },
    {
      "anonymous": false,
      "inputs": [
        {
          "indexed": true,
          "internalType": "address",
          "name": "operator",
          "type": "address"
        },
        {
          "indexed": true,
          "internalType": "address",
          "name": "from",
          "type": "address"
        },
        {
          "indexed": true,
          "internalType": "address",
          "name": "to",
          "type": "address"
        },
        {
          "indexed": false,
          "internalType": "uint256[]",
          "name": "ids",
          "type": "uint256[]"
        },
        {
          "indexed": false,
          "internalType": "uint256[]",
          "name": "values",
          "type": "uint256[]"
        }
      ],
      "name": "TransferBatch",
      "type": "event"
    },
    {
      "anonymous": false,
      "inputs": [
        {
          "indexed": true,
          "internalType": "address",
          "name": "operator",
          "type": "address"
        },
        {
          "indexed": true,
          "internalType": "address",
          "name": "from",
          "type": "address"
        },
        {
          "indexed": true,
          "internalType": "address",
          "name": "to",
          "type": "address"
        },
        {
          "indexed": false,
          "internalType": "uint256",
          "name": "id",
          "type": "uint256"
        },
        {
          "indexed": false,
          "internalType": "uint256",
          "name": "value",
          "type": "uint256"
        }
      ],
      "name": "TransferSingle",
      "type": "event"
    },
    {
      "anonymous": false,
      "inputs": [
        {
          "indexed": false,
          "internalType": "string",
          "name": "value",
          "type": "string"
        },
        {
          "indexed": true,
          "internalType": "uint256",
          "name": "id",
          "type": "uint256"
        }
      ],
      "name": "URI",
      "type": "event"
    },
    {
      "inputs": [],
      "name": "Paper",
      "outputs": [
        {
          "internalType": "uint256",
          "name": "",
          "type": "uint256"
        }
      ],
      "stateMutability": "view",
      "type": "function"
    },
    {
      "inputs": [],
      "name": "Rock",
      "outputs": [
        {
          "internalType": "uint256",
          "name": "",
          "type": "uint256"
        }
      ],
      "stateMutability": "view",
      "type": "function"
    },
    {
      "inputs": [],
      "name": "Scissors",
      "outputs": [
        {
          "internalType": "uint256",
          "name": "",
          "type": "uint256"
        }
      ],
      "stateMutability": "view",
      "type": "function"
    },
    {
      "inputs": [
        {
          "internalType": "address",
          "name": "account",
          "type": "address"
        },
        {
          "internalType": "uint256",
          "name": "id",
          "type": "uint256"
        }
      ],
      "name": "balanceOf",
      "outputs": [
        {
          "internalType": "uint256",
          "name": "",
          "type": "uint256"
        }
      ],
      "stateMutability": "view",
      "type": "function"
    },
    {
      "inputs": [
        {
          "internalType": "address[]",
          "name": "accounts",
          "type": "address[]"
        },
        {
          "internalType": "uint256[]",
          "name": "ids",
          "type": "uint256[]"
        }
      ],
      "name": "balanceOfBatch",
      "outputs": [
        {
          "internalType": "uint256[]",
          "name": "",
          "type": "uint256[]"
        }
      ],
      "stateMutability": "view",
      "type": "function"
    },
    {
      "inputs": [
        {
          "internalType": "address",
          "name": "account",
          "type": "address"
        },
        {
          "internalType": "address",
          "name": "operator",
          "type": "address"
        }
      ],
      "name": "isApprovedForAll",
      "outputs": [
        {
          "internalType": "bool",
          "name": "",
          "type": "bool"
        }
      ],
      "stateMutability": "view",
      "type": "function"
    },
    {
      "inputs": [],
      "name": "mintPaper",
      "outputs": [],
      "stateMutability": "nonpayable",
      "type": "function"
    },
    {
      "inputs": [],
      "name": "mintRock",
      "outputs": [],
      "stateMutability": "nonpayable",
      "type": "function"
    },
    {
      "inputs": [],
      "name": "mintScissors",
      "outputs": [],
      "stateMutability": "nonpayable",
      "type": "function"
    },
    {
      "inputs": [
        {
          "internalType": "address",
          "name": "from",
          "type": "address"
        },
        {
          "internalType": "address",
          "name": "to",
          "type": "address"
        },
        {
          "internalType": "uint256[]",
          "name": "ids",
          "type": "uint256[]"
        },
        {
          "internalType": "uint256[]",
          "name": "amounts",
          "type": "uint256[]"
        },
        {
          "internalType": "bytes",
          "name": "data",
          "type": "bytes"
        }
      ],
      "name": "safeBatchTransferFrom",
      "outputs": [],
      "stateMutability": "nonpayable",
      "type": "function"
    },
    {
      "inputs": [
        {
          "internalType": "address",
          "name": "from",
          "type": "address"
        },
        {
          "internalType": "address",
          "name": "to",
          "type": "address"
        },
        {
          "internalType": "uint256",
          "name": "id",
          "type": "uint256"
        },
        {
          "internalType": "uint256",
          "name": "amount",
          "type": "uint256"
        },
        {
          "internalType": "bytes",
          "name": "data",
          "type": "bytes"
        }
      ],
      "name": "safeTransferFrom",
      "outputs": [],
      "stateMutability": "nonpayable",
      "type": "function"
    },
    {
      "inputs": [
        {
          "internalType": "address",
          "name": "operator",
          "type": "address"
        },
        {
          "internalType": "bool",
          "name": "approved",
          "type": "bool"
        }
      ],
      "name": "setApprovalForAll",
      "outputs": [],
      "stateMutability": "nonpayable",
      "type": "function"
    },
    {
      "inputs": [
        {
          "internalType": "bytes4",
          "name": "interfaceId",
          "type": "bytes4"
        }
      ],
      "name": "supportsInterface",
      "outputs": [
        {
          "internalType": "bool",
          "name": "",
          "type": "bool"
        }
      ],
      "stateMutability": "view",
      "type": "function"
    },
    {
      "inputs": [
        {
          "internalType": "uint256",
          "name": "_tokenid",
          "type": "uint256"
        }
      ],
      "name": "uri",
      "outputs": [
        {
          "internalType": "string",
          "name": "",
          "type": "string"
        }
      ],
      "stateMutability": "pure",
      "type": "function"
    }
  ],
  "bytecode": "0x60806040523480156200001157600080fd5b506040518060800160405280605a815260200162002d7c605a91396200003d816200004460201b60201c565b5062000175565b80600290805190602001906200005c92919062000060565b5050565b8280546200006e906200013f565b90600052602060002090601f016020900481019282620000925760008555620000de565b82601f10620000ad57805160ff1916838001178555620000de565b82800160010185558215620000de579182015b82811115620000dd578251825591602001919060010190620000c0565b5b509050620000ed9190620000f1565b5090565b5b808211156200010c576000816000905550600101620000f2565b5090565b7f4e487b7100000000000000000000000000000000000000000000000000000000600052602260045260246000fd5b600060028204905060018216806200015857607f821691505b602082108114156200016f576200016e62000110565b5b50919050565b612bf780620001856000396000f3fe608060405234801561001057600080fd5b50600436106100e95760003560e01c8063a003881d1161008c578063af769eff11610066578063af769eff14610236578063d5a9a82c14610254578063e985e9c51461025e578063f242432a1461028e576100e9565b8063a003881d14610206578063a1ac2fef14610210578063a22cb4651461021a576100e9565b806325ea269e116100c857806325ea269e1461017e5780632eb2c2d61461019c5780634e1273f4146101b857806360689557146101e8576100e9565b8062fdd58e146100ee57806301ffc9a71461011e5780630e89341c1461014e575b600080fd5b6101086004803603810190610103919061183a565b6102aa565b6040516101159190611889565b60405180910390f35b610138600480360381019061013391906118fc565b610373565b6040516101459190611944565b60405180910390f35b6101686004803603810190610163919061195f565b610455565b6040516101759190611a25565b60405180910390f35b610186610486565b6040516101939190611889565b60405180910390f35b6101b660048036038101906101b19190611c44565b61048b565b005b6101d260048036038101906101cd9190611dd6565b61052c565b6040516101df9190611f0c565b60405180910390f35b6101f0610645565b6040516101fd9190611889565b60405180910390f35b61020e61064a565b005b61021861068f565b005b610234600480360381019061022f9190611f5a565b6106d3565b005b61023e6106e9565b60405161024b9190611889565b60405180910390f35b61025c6106ee565b005b61027860048036038101906102739190611f9a565b610733565b6040516102859190611944565b60405180910390f35b6102a860048036038101906102a39190611fda565b6107c7565b005b60008073ffffffffffffffffffffffffffffffffffffffff168373ffffffffffffffffffffffffffffffffffffffff16141561031b576040517f08c379a0000000000000000000000000000000000000000000000000000000008152600401610312906120e3565b60405180910390fd5b60008083815260200190815260200160002060008473ffffffffffffffffffffffffffffffffffffffff1673ffffffffffffffffffffffffffffffffffffffff16815260200190815260200160002054905092915050565b60007fd9b67a26000000000000000000000000000000000000000000000000000000007bffffffffffffffffffffffffffffffffffffffffffffffffffffffff1916827bffffffffffffffffffffffffffffffffffffffffffffffffffffffff1916148061043e57507f0e89341c000000000000000000000000000000000000000000000000000000007bffffffffffffffffffffffffffffffffffffffffffffffffffffffff1916827bffffffffffffffffffffffffffffffffffffffffffffffffffffffff1916145b8061044e575061044d82610868565b5b9050919050565b6060610460826108d2565b6040516020016104709190612223565b6040516020818303038152906040529050919050565b600381565b610493610a33565b73ffffffffffffffffffffffffffffffffffffffff168573ffffffffffffffffffffffffffffffffffffffff1614806104d957506104d8856104d3610a33565b610733565b5b610518576040517f08c379a000000000000000000000000000000000000000000000000000000000815260040161050f906122c2565b60405180910390fd5b6105258585858585610a3b565b5050505050565b60608151835114610572576040517f08c379a000000000000000000000000000000000000000000000000000000000815260040161056990612354565b60405180910390fd5b6000835167ffffffffffffffff81111561058f5761058e611a4c565b5b6040519080825280602002602001820160405280156105bd5781602001602082028036833780820191505090505b50905060005b845181101561063a5761060a8582815181106105e2576105e1612374565b5b60200260200101518583815181106105fd576105fc612374565b5b60200260200101516102aa565b82828151811061061d5761061c612374565b5b60200260200101818152505080610633906123d2565b90506105c3565b508091505092915050565b600181565b61068d33600260016040518060400160405280600581526020017f3078303030000000000000000000000000000000000000000000000000000000815250610d5d565b565b6106d1336001806040518060400160405280600581526020017f3078303030000000000000000000000000000000000000000000000000000000815250610d5d565b565b6106e56106de610a33565b8383610f0e565b5050565b600281565b61073133600360016040518060400160405280600581526020017f3078303030000000000000000000000000000000000000000000000000000000815250610d5d565b565b6000600160008473ffffffffffffffffffffffffffffffffffffffff1673ffffffffffffffffffffffffffffffffffffffff16815260200190815260200160002060008373ffffffffffffffffffffffffffffffffffffffff1673ffffffffffffffffffffffffffffffffffffffff16815260200190815260200160002060009054906101000a900460ff16905092915050565b6107cf610a33565b73ffffffffffffffffffffffffffffffffffffffff168573ffffffffffffffffffffffffffffffffffffffff16148061081557506108148561080f610a33565b610733565b5b610854576040517f08c379a000000000000000000000000000000000000000000000000000000000815260040161084b906122c2565b60405180910390fd5b610861858585858561107b565b5050505050565b60007f01ffc9a7000000000000000000000000000000000000000000000000000000007bffffffffffffffffffffffffffffffffffffffffffffffffffffffff1916827bffffffffffffffffffffffffffffffffffffffffffffffffffffffff1916149050919050565b6060600082141561091a576040518060400160405280600181526020017f30000000000000000000000000000000000000000000000000000000000000008152509050610a2e565b600082905060005b6000821461094c578080610935906123d2565b915050600a82610945919061244a565b9150610922565b60008167ffffffffffffffff81111561096857610967611a4c565b5b6040519080825280601f01601f19166020018201604052801561099a5781602001600182028036833780820191505090505b5090505b60008514610a27576001826109b3919061247b565b9150600a856109c291906124af565b60306109ce91906124e0565b60f81b8183815181106109e4576109e3612374565b5b60200101907effffffffffffffffffffffffffffffffffffffffffffffffffffffffffffff1916908160001a905350600a85610a20919061244a565b945061099e565b8093505050505b919050565b600033905090565b8151835114610a7f576040517f08c379a0000000000000000000000000000000000000000000000000000000008152600401610a76906125a8565b60405180910390fd5b600073ffffffffffffffffffffffffffffffffffffffff168473ffffffffffffffffffffffffffffffffffffffff161415610aef576040517f08c379a0000000000000000000000000000000000000000000000000000000008152600401610ae69061263a565b60405180910390fd5b6000610af9610a33565b9050610b09818787878787611317565b60005b8451811015610cba576000858281518110610b2a57610b29612374565b5b602002602001015190506000858381518110610b4957610b48612374565b5b60200260200101519050600080600084815260200190815260200160002060008b73ffffffffffffffffffffffffffffffffffffffff1673ffffffffffffffffffffffffffffffffffffffff16815260200190815260200160002054905081811015610bea576040517f08c379a0000000000000000000000000000000000000000000000000000000008152600401610be1906126cc565b60405180910390fd5b81810360008085815260200190815260200160002060008c73ffffffffffffffffffffffffffffffffffffffff1673ffffffffffffffffffffffffffffffffffffffff168152602001908152602001600020819055508160008085815260200190815260200160002060008b73ffffffffffffffffffffffffffffffffffffffff1673ffffffffffffffffffffffffffffffffffffffff1681526020019081526020016000206000828254610c9f91906124e0565b9250508190555050505080610cb3906123d2565b9050610b0c565b508473ffffffffffffffffffffffffffffffffffffffff168673ffffffffffffffffffffffffffffffffffffffff168273ffffffffffffffffffffffffffffffffffffffff167f4a39dc06d4c0dbc64b70af90fd698a233a518aa5d07e595d983b8c0526c8f7fb8787604051610d319291906126ec565b60405180910390a4610d4781878787878761131f565b610d55818787878787611327565b505050505050565b600073ffffffffffffffffffffffffffffffffffffffff168473ffffffffffffffffffffffffffffffffffffffff161415610dcd576040517f08c379a0000000000000000000000000000000000000000000000000000000008152600401610dc490612795565b60405180910390fd5b6000610dd7610a33565b90506000610de48561150e565b90506000610df18561150e565b9050610e0283600089858589611317565b8460008088815260200190815260200160002060008973ffffffffffffffffffffffffffffffffffffffff1673ffffffffffffffffffffffffffffffffffffffff1681526020019081526020016000206000828254610e6191906124e0565b925050819055508673ffffffffffffffffffffffffffffffffffffffff16600073ffffffffffffffffffffffffffffffffffffffff168473ffffffffffffffffffffffffffffffffffffffff167fc3d58168c5ae7397731d063d5bbf3d657854427343f4c083240f7aacaa2d0f628989604051610edf9291906127b5565b60405180910390a4610ef68360008985858961131f565b610f0583600089898989611588565b50505050505050565b8173ffffffffffffffffffffffffffffffffffffffff168373ffffffffffffffffffffffffffffffffffffffff161415610f7d576040517f08c379a0000000000000000000000000000000000000000000000000000000008152600401610f7490612850565b60405180910390fd5b80600160008573ffffffffffffffffffffffffffffffffffffffff1673ffffffffffffffffffffffffffffffffffffffff16815260200190815260200160002060008473ffffffffffffffffffffffffffffffffffffffff1673ffffffffffffffffffffffffffffffffffffffff16815260200190815260200160002060006101000a81548160ff0219169083151502179055508173ffffffffffffffffffffffffffffffffffffffff168373ffffffffffffffffffffffffffffffffffffffff167f17307eab39ab6107e8899845ad3d59bd9653f200f220920489ca2b5937696c318360405161106e9190611944565b60405180910390a3505050565b600073ffffffffffffffffffffffffffffffffffffffff168473ffffffffffffffffffffffffffffffffffffffff1614156110eb576040517f08c379a00000000000000000000000000000000000000000000000000000000081526004016110e29061263a565b60405180910390fd5b60006110f5610a33565b905060006111028561150e565b9050600061110f8561150e565b905061111f838989858589611317565b600080600088815260200190815260200160002060008a73ffffffffffffffffffffffffffffffffffffffff1673ffffffffffffffffffffffffffffffffffffffff168152602001908152602001600020549050858110156111b6576040517f08c379a00000000000000000000000000000000000000000000000000000000081526004016111ad906126cc565b60405180910390fd5b85810360008089815260200190815260200160002060008b73ffffffffffffffffffffffffffffffffffffffff1673ffffffffffffffffffffffffffffffffffffffff168152602001908152602001600020819055508560008089815260200190815260200160002060008a73ffffffffffffffffffffffffffffffffffffffff1673ffffffffffffffffffffffffffffffffffffffff168152602001908152602001600020600082825461126b91906124e0565b925050819055508773ffffffffffffffffffffffffffffffffffffffff168973ffffffffffffffffffffffffffffffffffffffff168573ffffffffffffffffffffffffffffffffffffffff167fc3d58168c5ae7397731d063d5bbf3d657854427343f4c083240f7aacaa2d0f628a8a6040516112e89291906127b5565b60405180910390a46112fe848a8a86868a61131f565b61130c848a8a8a8a8a611588565b505050505050505050565b505050505050565b505050505050565b6113468473ffffffffffffffffffffffffffffffffffffffff1661176f565b15611506578373ffffffffffffffffffffffffffffffffffffffff1663bc197c8187878686866040518663ffffffff1660e01b815260040161138c9594939291906128d4565b602060405180830381600087803b1580156113a657600080fd5b505af19250505080156113d757506040513d601f19601f820116820180604052508101906113d49190612951565b60015b61147d576113e361298b565b806308c379a0141561144057506113f86129ad565b806114035750611442565b806040517f08c379a00000000000000000000000000000000000000000000000000000000081526004016114379190611a25565b60405180910390fd5b505b6040517f08c379a000000000000000000000000000000000000000000000000000000000815260040161147490612ab5565b60405180910390fd5b63bc197c8160e01b7bffffffffffffffffffffffffffffffffffffffffffffffffffffffff1916817bffffffffffffffffffffffffffffffffffffffffffffffffffffffff191614611504576040517f08c379a00000000000000000000000000000000000000000000000000000000081526004016114fb90612b47565b60405180910390fd5b505b505050505050565b60606000600167ffffffffffffffff81111561152d5761152c611a4c565b5b60405190808252806020026020018201604052801561155b5781602001602082028036833780820191505090505b509050828160008151811061157357611572612374565b5b60200260200101818152505080915050919050565b6115a78473ffffffffffffffffffffffffffffffffffffffff1661176f565b15611767578373ffffffffffffffffffffffffffffffffffffffff1663f23a6e6187878686866040518663ffffffff1660e01b81526004016115ed959493929190612b67565b602060405180830381600087803b15801561160757600080fd5b505af192505050801561163857506040513d601f19601f820116820180604052508101906116359190612951565b60015b6116de5761164461298b565b806308c379a014156116a157506116596129ad565b8061166457506116a3565b806040517f08c379a00000000000000000000000000000000000000000000000000000000081526004016116989190611a25565b60405180910390fd5b505b6040517f08c379a00000000000000000000000000000000000000000000000000000000081526004016116d590612ab5565b60405180910390fd5b63f23a6e6160e01b7bffffffffffffffffffffffffffffffffffffffffffffffffffffffff1916817bffffffffffffffffffffffffffffffffffffffffffffffffffffffff191614611765576040517f08c379a000000000000000000000000000000000000000000000000000000000815260040161175c90612b47565b60405180910390fd5b505b505050505050565b6000808273ffffffffffffffffffffffffffffffffffffffff163b119050919050565b6000604051905090565b600080fd5b600080fd5b600073ffffffffffffffffffffffffffffffffffffffff82169050919050565b60006117d1826117a6565b9050919050565b6117e1816117c6565b81146117ec57600080fd5b50565b6000813590506117fe816117d8565b92915050565b6000819050919050565b61181781611804565b811461182257600080fd5b50565b6000813590506118348161180e565b92915050565b600080604083850312156118515761185061179c565b5b600061185f858286016117ef565b925050602061187085828601611825565b9150509250929050565b61188381611804565b82525050565b600060208201905061189e600083018461187a565b92915050565b60007fffffffff0000000000000000000000000000000000000000000000000000000082169050919050565b6118d9816118a4565b81146118e457600080fd5b50565b6000813590506118f6816118d0565b92915050565b6000602082840312156119125761191161179c565b5b6000611920848285016118e7565b91505092915050565b60008115159050919050565b61193e81611929565b82525050565b60006020820190506119596000830184611935565b92915050565b6000602082840312156119755761197461179c565b5b600061198384828501611825565b91505092915050565b600081519050919050565b600082825260208201905092915050565b60005b838110156119c65780820151818401526020810190506119ab565b838111156119d5576000848401525b50505050565b6000601f19601f8301169050919050565b60006119f78261198c565b611a018185611997565b9350611a118185602086016119a8565b611a1a816119db565b840191505092915050565b60006020820190508181036000830152611a3f81846119ec565b905092915050565b600080fd5b7f4e487b7100000000000000000000000000000000000000000000000000000000600052604160045260246000fd5b611a84826119db565b810181811067ffffffffffffffff82111715611aa357611aa2611a4c565b5b80604052505050565b6000611ab6611792565b9050611ac28282611a7b565b919050565b600067ffffffffffffffff821115611ae257611ae1611a4c565b5b602082029050602081019050919050565b600080fd5b6000611b0b611b0684611ac7565b611aac565b90508083825260208201905060208402830185811115611b2e57611b2d611af3565b5b835b81811015611b575780611b438882611825565b845260208401935050602081019050611b30565b5050509392505050565b600082601f830112611b7657611b75611a47565b5b8135611b86848260208601611af8565b91505092915050565b600080fd5b600067ffffffffffffffff821115611baf57611bae611a4c565b5b611bb8826119db565b9050602081019050919050565b82818337600083830152505050565b6000611be7611be284611b94565b611aac565b905082815260208101848484011115611c0357611c02611b8f565b5b611c0e848285611bc5565b509392505050565b600082601f830112611c2b57611c2a611a47565b5b8135611c3b848260208601611bd4565b91505092915050565b600080600080600060a08688031215611c6057611c5f61179c565b5b6000611c6e888289016117ef565b9550506020611c7f888289016117ef565b945050604086013567ffffffffffffffff811115611ca057611c9f6117a1565b5b611cac88828901611b61565b935050606086013567ffffffffffffffff811115611ccd57611ccc6117a1565b5b611cd988828901611b61565b925050608086013567ffffffffffffffff811115611cfa57611cf96117a1565b5b611d0688828901611c16565b9150509295509295909350565b600067ffffffffffffffff821115611d2e57611d2d611a4c565b5b602082029050602081019050919050565b6000611d52611d4d84611d13565b611aac565b90508083825260208201905060208402830185811115611d7557611d74611af3565b5b835b81811015611d9e5780611d8a88826117ef565b845260208401935050602081019050611d77565b5050509392505050565b600082601f830112611dbd57611dbc611a47565b5b8135611dcd848260208601611d3f565b91505092915050565b60008060408385031215611ded57611dec61179c565b5b600083013567ffffffffffffffff811115611e0b57611e0a6117a1565b5b611e1785828601611da8565b925050602083013567ffffffffffffffff811115611e3857611e376117a1565b5b611e4485828601611b61565b9150509250929050565b600081519050919050565b600082825260208201905092915050565b6000819050602082019050919050565b611e8381611804565b82525050565b6000611e958383611e7a565b60208301905092915050565b6000602082019050919050565b6000611eb982611e4e565b611ec38185611e59565b9350611ece83611e6a565b8060005b83811015611eff578151611ee68882611e89565b9750611ef183611ea1565b925050600181019050611ed2565b5085935050505092915050565b60006020820190508181036000830152611f268184611eae565b905092915050565b611f3781611929565b8114611f4257600080fd5b50565b600081359050611f5481611f2e565b92915050565b60008060408385031215611f7157611f7061179c565b5b6000611f7f858286016117ef565b9250506020611f9085828601611f45565b9150509250929050565b60008060408385031215611fb157611fb061179c565b5b6000611fbf858286016117ef565b9250506020611fd0858286016117ef565b9150509250929050565b600080600080600060a08688031215611ff657611ff561179c565b5b6000612004888289016117ef565b9550506020612015888289016117ef565b945050604061202688828901611825565b935050606061203788828901611825565b925050608086013567ffffffffffffffff811115612058576120576117a1565b5b61206488828901611c16565b9150509295509295909350565b7f455243313135353a2061646472657373207a65726f206973206e6f742061207660008201527f616c6964206f776e657200000000000000000000000000000000000000000000602082015250565b60006120cd602a83611997565b91506120d882612071565b604082019050919050565b600060208201905081810360008301526120fc816120c0565b9050919050565b600081905092915050565b7f68747470733a2f2f697066732e696f2f697066732f62616679626569686a6a6b60008201527f77647278786a6e757765766c7174716d683369656763616463333273696f347760208201527f6d6f37627632676266333471733334612f000000000000000000000000000000604082015250565b6000612190605183612103565b915061219b8261210e565b605182019050919050565b60006121b18261198c565b6121bb8185612103565b93506121cb8185602086016119a8565b80840191505092915050565b7f2e6a736f6e000000000000000000000000000000000000000000000000000000600082015250565b600061220d600583612103565b9150612218826121d7565b600582019050919050565b600061222e82612183565b915061223a82846121a6565b915061224582612200565b915081905092915050565b7f455243313135353a2063616c6c6572206973206e6f7420746f6b656e206f776e60008201527f6572206e6f7220617070726f7665640000000000000000000000000000000000602082015250565b60006122ac602f83611997565b91506122b782612250565b604082019050919050565b600060208201905081810360008301526122db8161229f565b9050919050565b7f455243313135353a206163636f756e747320616e6420696473206c656e67746860008201527f206d69736d617463680000000000000000000000000000000000000000000000602082015250565b600061233e602983611997565b9150612349826122e2565b604082019050919050565b6000602082019050818103600083015261236d81612331565b9050919050565b7f4e487b7100000000000000000000000000000000000000000000000000000000600052603260045260246000fd5b7f4e487b7100000000000000000000000000000000000000000000000000000000600052601160045260246000fd5b60006123dd82611804565b91507fffffffffffffffffffffffffffffffffffffffffffffffffffffffffffffffff8214156124105761240f6123a3565b5b600182019050919050565b7f4e487b7100000000000000000000000000000000000000000000000000000000600052601260045260246000fd5b600061245582611804565b915061246083611804565b9250826124705761246f61241b565b5b828204905092915050565b600061248682611804565b915061249183611804565b9250828210156124a4576124a36123a3565b5b828203905092915050565b60006124ba82611804565b91506124c583611804565b9250826124d5576124d461241b565b5b828206905092915050565b60006124eb82611804565b91506124f683611804565b9250827fffffffffffffffffffffffffffffffffffffffffffffffffffffffffffffffff0382111561252b5761252a6123a3565b5b828201905092915050565b7f455243313135353a2069647320616e6420616d6f756e7473206c656e6774682060008201527f6d69736d61746368000000000000000000000000000000000000000000000000602082015250565b6000612592602883611997565b915061259d82612536565b604082019050919050565b600060208201905081810360008301526125c181612585565b9050919050565b7f455243313135353a207472616e7366657220746f20746865207a65726f20616460008201527f6472657373000000000000000000000000000000000000000000000000000000602082015250565b6000612624602583611997565b915061262f826125c8565b604082019050919050565b6000602082019050818103600083015261265381612617565b9050919050565b7f455243313135353a20696e73756666696369656e742062616c616e636520666f60008201527f72207472616e7366657200000000000000000000000000000000000000000000602082015250565b60006126b6602a83611997565b91506126c18261265a565b604082019050919050565b600060208201905081810360008301526126e5816126a9565b9050919050565b600060408201905081810360008301526127068185611eae565b9050818103602083015261271a8184611eae565b90509392505050565b7f455243313135353a206d696e7420746f20746865207a65726f2061646472657360008201527f7300000000000000000000000000000000000000000000000000000000000000602082015250565b600061277f602183611997565b915061278a82612723565b604082019050919050565b600060208201905081810360008301526127ae81612772565b9050919050565b60006040820190506127ca600083018561187a565b6127d7602083018461187a565b9392505050565b7f455243313135353a2073657474696e6720617070726f76616c2073746174757360008201527f20666f722073656c660000000000000000000000000000000000000000000000602082015250565b600061283a602983611997565b9150612845826127de565b604082019050919050565b600060208201905081810360008301526128698161282d565b9050919050565b612879816117c6565b82525050565b600081519050919050565b600082825260208201905092915050565b60006128a68261287f565b6128b0818561288a565b93506128c08185602086016119a8565b6128c9816119db565b840191505092915050565b600060a0820190506128e96000830188612870565b6128f66020830187612870565b81810360408301526129088186611eae565b9050818103606083015261291c8185611eae565b90508181036080830152612930818461289b565b90509695505050505050565b60008151905061294b816118d0565b92915050565b6000602082840312156129675761296661179c565b5b60006129758482850161293c565b91505092915050565b60008160e01c9050919050565b600060033d11156129aa5760046000803e6129a760005161297e565b90505b90565b600060443d10156129bd57612a40565b6129c5611792565b60043d036004823e80513d602482011167ffffffffffffffff821117156129ed575050612a40565b808201805167ffffffffffffffff811115612a0b5750505050612a40565b80602083010160043d038501811115612a28575050505050612a40565b612a3782602001850186611a7b565b82955050505050505b90565b7f455243313135353a207472616e7366657220746f206e6f6e204552433131353560008201527f526563656976657220696d706c656d656e746572000000000000000000000000602082015250565b6000612a9f603483611997565b9150612aaa82612a43565b604082019050919050565b60006020820190508181036000830152612ace81612a92565b9050919050565b7f455243313135353a204552433131353552656365697665722072656a6563746560008201527f6420746f6b656e73000000000000000000000000000000000000000000000000602082015250565b6000612b31602883611997565b9150612b3c82612ad5565b604082019050919050565b60006020820190508181036000830152612b6081612b24565b9050919050565b600060a082019050612b7c6000830188612870565b612b896020830187612870565b612b96604083018661187a565b612ba3606083018561187a565b8181036080830152612bb5818461289b565b9050969550505050505056fea2646970667358221220633a806b3d94ef9164eacb99c3c36afacb1954261f33fd96d08af7f70bc67be764736f6c6343000809003368747470733a2f2f697066732e696f2f697066732f62616679626569686a6a6b77647278786a6e757765766c7174716d683369656763616463333273696f34776d6f37627632676266333471733334612f7b69647d2e6a736f6e",
  "linkReferences": {},
  "deployedLinkReferences": {}
}