{
  "_format": "hh-sol-artifact-1",
  "contractName": "WebBadminton",
  "sourceName": "contracts/LSP8.sol",
  "abi": [
    {
      "inputs": [
        {
          "internalType": "string",
          "name": "name_",
          "type": "string"
        },
        {
          "internalType": "string",
          "name": "symbol_",
          "type": "string"
        },
        {
          "internalType": "address",
          "name": "newOwner_",
          "type": "address"
        }
      ],
      "stateMutability": "nonpayable",
      "type": "constructor"
    },
    {
      "inputs": [],
      "name": "LSP4TokenNameNotEditable",
      "type": "error"
    },
    {
      "inputs": [],
      "name": "LSP4TokenSymbolNotEditable",
      "type": "error"
    },
    {
      "inputs": [],
      "name": "LSP8CannotSendToAddressZero",
      "type": "error"
    },
    {
      "inputs": [],
      "name": "LSP8CannotUseAddressZeroAsOperator",
      "type": "error"
    },
    {
      "inputs": [],
      "name": "LSP8InvalidTransferBatch",
      "type": "error"
    },
    {
      "inputs": [
        {
          "internalType": "bytes32",
          "name": "tokenId",
          "type": "bytes32"
        }
      ],
      "name": "LSP8NonExistentTokenId",
      "type": "error"
    },
    {
      "inputs": [
        {
          "internalType": "bytes32",
          "name": "tokenId",
          "type": "bytes32"
        },
        {
          "internalType": "address",
          "name": "caller",
          "type": "address"
        }
      ],
      "name": "LSP8NotTokenOperator",
      "type": "error"
    },
    {
      "inputs": [
        {
          "internalType": "address",
          "name": "tokenOwner",
          "type": "address"
        },
        {
          "internalType": "bytes32",
          "name": "tokenId",
          "type": "bytes32"
        },
        {
          "internalType": "address",
          "name": "caller",
          "type": "address"
        }
      ],
      "name": "LSP8NotTokenOwner",
      "type": "error"
    },
    {
      "inputs": [
        {
          "internalType": "address",
          "name": "tokenReceiver",
          "type": "address"
        }
      ],
      "name": "LSP8NotifyTokenReceiverContractMissingLSP1Interface",
      "type": "error"
    },
    {
      "inputs": [
        {
          "internalType": "address",
          "name": "tokenReceiver",
          "type": "address"
        }
      ],
      "name": "LSP8NotifyTokenReceiverIsEOA",
      "type": "error"
    },
    {
      "inputs": [
        {
          "internalType": "bytes32",
          "name": "tokenId",
          "type": "bytes32"
        }
      ],
      "name": "LSP8TokenIdAlreadyMinted",
      "type": "error"
    },
    {
      "anonymous": false,
      "inputs": [
        {
          "indexed": true,
          "internalType": "address",
          "name": "operator",
          "type": "address"
        },
        {
          "indexed": true,
          "internalType": "address",
          "name": "tokenOwner",
          "type": "address"
        },
        {
          "indexed": true,
          "internalType": "bytes32",
          "name": "tokenId",
          "type": "bytes32"
        }
      ],
      "name": "AuthorizedOperator",
      "type": "event"
    },
    {
      "anonymous": false,
      "inputs": [
        {
          "indexed": true,
          "internalType": "bytes32",
          "name": "dataKey",
          "type": "bytes32"
        }
      ],
      "name": "DataChanged",
      "type": "event"
    },
    {
      "anonymous": false,
      "inputs": [
        {
          "indexed": true,
          "internalType": "address",
          "name": "previousOwner",
          "type": "address"
        },
        {
          "indexed": true,
          "internalType": "address",
          "name": "newOwner",
          "type": "address"
        }
      ],
      "name": "OwnershipTransferred",
      "type": "event"
    },
    {
      "anonymous": false,
      "inputs": [
        {
          "indexed": true,
          "internalType": "address",
          "name": "operator",
          "type": "address"
        },
        {
          "indexed": true,
          "internalType": "address",
          "name": "tokenOwner",
          "type": "address"
        },
        {
          "indexed": true,
          "internalType": "bytes32",
          "name": "tokenId",
          "type": "bytes32"
        }
      ],
      "name": "RevokedOperator",
      "type": "event"
    },
    {
      "anonymous": false,
      "inputs": [
        {
          "indexed": false,
          "internalType": "address",
          "name": "operator",
          "type": "address"
        },
        {
          "indexed": true,
          "internalType": "address",
          "name": "from",
          "type": "address"
        },
        {
          "indexed": true,
          "internalType": "address",
          "name": "to",
          "type": "address"
        },
        {
          "indexed": true,
          "internalType": "bytes32",
          "name": "tokenId",
          "type": "bytes32"
        },
        {
          "indexed": false,
          "internalType": "bool",
          "name": "force",
          "type": "bool"
        },
        {
          "indexed": false,
          "internalType": "bytes",
          "name": "data",
          "type": "bytes"
        }
      ],
      "name": "Transfer",
      "type": "event"
    },
    {
      "inputs": [],
      "name": "Arcsaber11",
      "outputs": [
        {
          "internalType": "uint256",
          "name": "",
          "type": "uint256"
        }
      ],
      "stateMutability": "view",
      "type": "function"
    },
    {
      "inputs": [],
      "name": "astrox88DPro",
      "outputs": [
        {
          "internalType": "uint256",
          "name": "",
          "type": "uint256"
        }
      ],
      "stateMutability": "view",
      "type": "function"
    },
    {
      "inputs": [],
      "name": "astrox88SPro",
      "outputs": [
        {
          "internalType": "uint256",
          "name": "",
          "type": "uint256"
        }
      ],
      "stateMutability": "view",
      "type": "function"
    },
    {
      "inputs": [],
      "name": "astrox99Pro",
      "outputs": [
        {
          "internalType": "uint256",
          "name": "",
          "type": "uint256"
        }
      ],
      "stateMutability": "view",
      "type": "function"
    },
    {
      "inputs": [],
      "name": "astroxnavy",
      "outputs": [
        {
          "internalType": "uint256",
          "name": "",
          "type": "uint256"
        }
      ],
      "stateMutability": "view",
      "type": "function"
    },
    {
      "inputs": [],
      "name": "astroxred",
      "outputs": [
        {
          "internalType": "uint256",
          "name": "",
          "type": "uint256"
        }
      ],
      "stateMutability": "view",
      "type": "function"
    },
    {
      "inputs": [
        {
          "internalType": "address",
          "name": "operator",
          "type": "address"
        },
        {
          "internalType": "bytes32",
          "name": "tokenId",
          "type": "bytes32"
        }
      ],
      "name": "authorizeOperator",
      "outputs": [],
      "stateMutability": "nonpayable",
      "type": "function"
    },
    {
      "inputs": [
        {
          "internalType": "address",
          "name": "tokenOwner",
          "type": "address"
        }
      ],
      "name": "balanceOf",
      "outputs": [
        {
          "internalType": "uint256",
          "name": "",
          "type": "uint256"
        }
      ],
      "stateMutability": "view",
      "type": "function"
    },
    {
      "inputs": [],
      "name": "duora6",
      "outputs": [
        {
          "internalType": "uint256",
          "name": "",
          "type": "uint256"
        }
      ],
      "stateMutability": "view",
      "type": "function"
    },
    {
      "inputs": [
        {
          "internalType": "bytes32[]",
          "name": "dataKeys",
          "type": "bytes32[]"
        }
      ],
      "name": "getData",
      "outputs": [
        {
          "internalType": "bytes[]",
          "name": "dataValues",
          "type": "bytes[]"
        }
      ],
      "stateMutability": "view",
      "type": "function"
    },
    {
      "inputs": [
        {
          "internalType": "bytes32",
          "name": "dataKey",
          "type": "bytes32"
        }
      ],
      "name": "getData",
      "outputs": [
        {
          "internalType": "bytes",
          "name": "dataValue",
          "type": "bytes"
        }
      ],
      "stateMutability": "view",
      "type": "function"
    },
    {
      "inputs": [
        {
          "internalType": "bytes32",
          "name": "tokenId",
          "type": "bytes32"
        }
      ],
      "name": "getOperatorsOf",
      "outputs": [
        {
          "internalType": "address[]",
          "name": "",
          "type": "address[]"
        }
      ],
      "stateMutability": "view",
      "type": "function"
    },
    {
      "inputs": [
        {
          "internalType": "address",
          "name": "operator",
          "type": "address"
        },
        {
          "internalType": "bytes32",
          "name": "tokenId",
          "type": "bytes32"
        }
      ],
      "name": "isOperatorFor",
      "outputs": [
        {
          "internalType": "bool",
          "name": "",
          "type": "bool"
        }
      ],
      "stateMutability": "view",
      "type": "function"
    },
    {
      "inputs": [],
      "name": "mintArcsaber11",
      "outputs": [],
      "stateMutability": "nonpayable",
      "type": "function"
    },
    {
      "inputs": [],
      "name": "mintastrox88DPro",
      "outputs": [],
      "stateMutability": "nonpayable",
      "type": "function"
    },
    {
      "inputs": [],
      "name": "mintastrox88SPro",
      "outputs": [],
      "stateMutability": "nonpayable",
      "type": "function"
    },
    {
      "inputs": [],
      "name": "mintastrox99Pro",
      "outputs": [],
      "stateMutability": "nonpayable",
      "type": "function"
    },
    {
      "inputs": [],
      "name": "mintastroxnavy",
      "outputs": [],
      "stateMutability": "nonpayable",
      "type": "function"
    },
    {
      "inputs": [],
      "name": "mintastroxred",
      "outputs": [],
      "stateMutability": "nonpayable",
      "type": "function"
    },
    {
      "inputs": [],
      "name": "mintduora6",
      "outputs": [],
      "stateMutability": "nonpayable",
      "type": "function"
    },
    {
      "inputs": [],
      "name": "owner",
      "outputs": [
        {
          "internalType": "address",
          "name": "",
          "type": "address"
        }
      ],
      "stateMutability": "view",
      "type": "function"
    },
    {
      "inputs": [],
      "name": "renounceOwnership",
      "outputs": [],
      "stateMutability": "nonpayable",
      "type": "function"
    },
    {
      "inputs": [
        {
          "internalType": "address",
          "name": "operator",
          "type": "address"
        },
        {
          "internalType": "bytes32",
          "name": "tokenId",
          "type": "bytes32"
        }
      ],
      "name": "revokeOperator",
      "outputs": [],
      "stateMutability": "nonpayable",
      "type": "function"
    },
    {
      "inputs": [
        {
          "internalType": "bytes32[]",
          "name": "dataKeys",
          "type": "bytes32[]"
        },
        {
          "internalType": "bytes[]",
          "name": "dataValues",
          "type": "bytes[]"
        }
      ],
      "name": "setData",
      "outputs": [],
      "stateMutability": "nonpayable",
      "type": "function"
    },
    {
      "inputs": [
        {
          "internalType": "bytes32",
          "name": "dataKey",
          "type": "bytes32"
        },
        {
          "internalType": "bytes",
          "name": "dataValue",
          "type": "bytes"
        }
      ],
      "name": "setData",
      "outputs": [],
      "stateMutability": "nonpayable",
      "type": "function"
    },
    {
      "inputs": [
        {
          "internalType": "bytes4",
          "name": "interfaceId",
          "type": "bytes4"
        }
      ],
      "name": "supportsInterface",
      "outputs": [
        {
          "internalType": "bool",
          "name": "",
          "type": "bool"
        }
      ],
      "stateMutability": "view",
      "type": "function"
    },
    {
      "inputs": [
        {
          "internalType": "address",
          "name": "tokenOwner",
          "type": "address"
        }
      ],
      "name": "tokenIdsOf",
      "outputs": [
        {
          "internalType": "bytes32[]",
          "name": "",
          "type": "bytes32[]"
        }
      ],
      "stateMutability": "view",
      "type": "function"
    },
    {
      "inputs": [
        {
          "internalType": "bytes32",
          "name": "tokenId",
          "type": "bytes32"
        }
      ],
      "name": "tokenOwnerOf",
      "outputs": [
        {
          "internalType": "address",
          "name": "",
          "type": "address"
        }
      ],
      "stateMutability": "view",
      "type": "function"
    },
    {
      "inputs": [],
      "name": "totalSupply",
      "outputs": [
        {
          "internalType": "uint256",
          "name": "",
          "type": "uint256"
        }
      ],
      "stateMutability": "view",
      "type": "function"
    },
    {
      "inputs": [
        {
          "internalType": "address",
          "name": "from",
          "type": "address"
        },
        {
          "internalType": "address",
          "name": "to",
          "type": "address"
        },
        {
          "internalType": "bytes32",
          "name": "tokenId",
          "type": "bytes32"
        },
        {
          "internalType": "bool",
          "name": "force",
          "type": "bool"
        },
        {
          "internalType": "bytes",
          "name": "data",
          "type": "bytes"
        }
      ],
      "name": "transfer",
      "outputs": [],
      "stateMutability": "nonpayable",
      "type": "function"
    },
    {
      "inputs": [
        {
          "internalType": "address[]",
          "name": "from",
          "type": "address[]"
        },
        {
          "internalType": "address[]",
          "name": "to",
          "type": "address[]"
        },
        {
          "internalType": "bytes32[]",
          "name": "tokenId",
          "type": "bytes32[]"
        },
        {
          "internalType": "bool",
          "name": "force",
          "type": "bool"
        },
        {
          "internalType": "bytes[]",
          "name": "data",
          "type": "bytes[]"
        }
      ],
      "name": "transferBatch",
      "outputs": [],
      "stateMutability": "nonpayable",
      "type": "function"
    },
    {
      "inputs": [
        {
          "internalType": "address",
          "name": "newOwner",
          "type": "address"
        }
      ],
      "name": "transferOwnership",
      "outputs": [],
      "stateMutability": "nonpayable",
      "type": "function"
    }
  ],
  "bytecode": "0x60806040523480156200001157600080fd5b5060405162003c4f38038062003c4f833981810160405281019062000037919062000585565b8282828282828062000054816200014760201b62000f531760201c565b50620000c47feafec4d89fa9619884b60000a4d96624a38f7ac2d8d9a604ecf07c12c77e480c60001b6040518060400160405280600481526020017fa4d96624000000000000000000000000000000000000000000000000000000008152506200024f60201b620010521760201c565b620000fe7fdeba1e292f8ba88238e10ab3c7f88bd4be4fac56cad5194b6ecceaf653468af160001b846200024f60201b620010521760201c565b620001387f2f0a68ab07768e01943a599e73362a0e17a63a72e94dd2e384d2c1d4db93275660001b836200024f60201b620010521760201c565b50505050505050505062000684565b62000157620002aa60201b60201c565b73ffffffffffffffffffffffffffffffffffffffff168173ffffffffffffffffffffffffffffffffffffffff16146200024c5760008060009054906101000a900473ffffffffffffffffffffffffffffffffffffffff169050816000806101000a81548173ffffffffffffffffffffffffffffffffffffffff021916908373ffffffffffffffffffffffffffffffffffffffff1602179055508173ffffffffffffffffffffffffffffffffffffffff168173ffffffffffffffffffffffffffffffffffffffff167f8be0079c531659141344cd1fd0a4f28419497f9722a3daafe3b4186f6b6457e060405160405180910390a3505b50565b8060016000848152602001908152602001600020908051906020019062000278929190620002d3565b50817fcdf4e344c0d23d4cdd0474039d176c55b19d531070dbe17856bfb993a5b5720b60405160405180910390a25050565b60008060009054906101000a900473ffffffffffffffffffffffffffffffffffffffff16905090565b828054620002e1906200064e565b90600052602060002090601f01602090048101928262000305576000855562000351565b82601f106200032057805160ff191683800117855562000351565b8280016001018555821562000351579182015b828111156200035057825182559160200191906001019062000333565b5b50905062000360919062000364565b5090565b5b808211156200037f57600081600090555060010162000365565b5090565b6000604051905090565b600080fd5b600080fd5b600080fd5b600080fd5b6000601f19601f8301169050919050565b7f4e487b7100000000000000000000000000000000000000000000000000000000600052604160045260246000fd5b620003ec82620003a1565b810181811067ffffffffffffffff821117156200040e576200040d620003b2565b5b80604052505050565b60006200042362000383565b9050620004318282620003e1565b919050565b600067ffffffffffffffff821115620004545762000453620003b2565b5b6200045f82620003a1565b9050602081019050919050565b60005b838110156200048c5780820151818401526020810190506200046f565b838111156200049c576000848401525b50505050565b6000620004b9620004b38462000436565b62000417565b905082815260208101848484011115620004d857620004d76200039c565b5b620004e58482856200046c565b509392505050565b600082601f83011262000505576200050462000397565b5b815162000517848260208601620004a2565b91505092915050565b600073ffffffffffffffffffffffffffffffffffffffff82169050919050565b60006200054d8262000520565b9050919050565b6200055f8162000540565b81146200056b57600080fd5b50565b6000815190506200057f8162000554565b92915050565b600080600060608486031215620005a157620005a06200038d565b5b600084015167ffffffffffffffff811115620005c257620005c162000392565b5b620005d086828701620004ed565b935050602084015167ffffffffffffffff811115620005f457620005f362000392565b5b6200060286828701620004ed565b925050604062000615868287016200056e565b9150509250925092565b7f4e487b7100000000000000000000000000000000000000000000000000000000600052602260045260246000fd5b600060028204905060018216806200066757607f821691505b602082108114156200067e576200067d6200061f565b5b50919050565b6135bb80620006946000396000f3fe608060405234801561001057600080fd5b50600436106101f05760003560e01c806370a082311161010f578063d0d81e52116100a2578063f2fde38b11610071578063f2fde38b14610535578063f4b0deed14610551578063f6b6c5871461056f578063f9c5743314610579576101f0565b8063d0d81e52146104f9578063d799c82d14610503578063d93c450a1461050d578063e3592b391461052b576101f0565b80639e708520116100de5780639e70852014610471578063a3b261f21461048f578063af86f5f2146104bf578063cf5182ba146104dd576101f0565b806370a08231146103fd578063715018a61461042d5780637f23690c146104375780638da5cb5b14610453576101f0565b806337c1648d1161018757806354f6127f1161015657806354f6127f1461039d57806355908868146103cd57806356d75648146103e957806370270ffe146103f3576101f0565b806337c1648d1461030357806349a6078d146103215780634e3e6e9c14610351578063511b695214610381576101f0565b8063217b2270116101c3578063217b22701461027b57806321bc14a7146102ab5780632a3654a4146102b5578063357da6e0146102e5576101f0565b806301ffc9a7146101f55780630b0c6d821461022557806314a6e2931461024157806318160ddd1461025d575b600080fd5b61020f600480360381019061020a91906122fc565b610597565b60405161021c9190612344565b60405180910390f35b61023f600480360381019061023a91906123f3565b6105f8565b005b61025b60048036038101906102569190612722565b610739565b005b6102656107e4565b60405161027291906127b3565b60405180910390f35b610295600480360381019061029091906127ce565b6107ee565b6040516102a2919061280a565b60405180910390f35b6102b36108a2565b005b6102cf60048036038101906102ca91906123f3565b6108c4565b6040516102dc9190612344565b60405180910390f35b6102ed6108e1565b6040516102fa91906127b3565b60405180910390f35b61030b6108e6565b60405161031891906127b3565b60405180910390f35b61033b600480360381019061033691906127ce565b6108eb565b60405161034891906128e3565b60405180910390f35b61036b60048036038101906103669190612905565b610918565b6040516103789190612a98565b60405180910390f35b61039b60048036038101906103969190612ae6565b6109ce565b005b6103b760048036038101906103b291906127ce565b610a3c565b6040516103c49190612bc7565b60405180910390f35b6103e760048036038101906103e29190612cac565b610a4e565b005b6103f1610b41565b005b6103fb610b63565b005b61041760048036038101906104129190612d97565b610b85565b60405161042491906127b3565b60405180910390f35b610435610bd5565b005b610451600480360381019061044c9190612dc4565b610be9565b005b61045b610bff565b604051610468919061280a565b60405180910390f35b610479610c28565b60405161048691906127b3565b60405180910390f35b6104a960048036038101906104a49190612d97565b610c2d565b6040516104b69190612ede565b60405180910390f35b6104c7610c7d565b6040516104d491906127b3565b60405180910390f35b6104f760048036038101906104f291906123f3565b610c82565b005b610501610e39565b005b61050b610e5b565b005b610515610e7d565b60405161052291906127b3565b60405180910390f35b610533610e82565b005b61054f600480360381019061054a9190612d97565b610ea3565b005b610559610f27565b60405161056691906127b3565b60405180910390f35b610577610f2c565b005b610581610f4e565b60405161058e91906127b3565b60405180910390f35b6000634939914560e01b7bffffffffffffffffffffffffffffffffffffffffffffffffffffffff1916827bffffffffffffffffffffffffffffffffffffffffffffffffffffffff191614806105f157506105f0826110ab565b5b9050919050565b6000610603826107ee565b9050600061060f61110c565b90508073ffffffffffffffffffffffffffffffffffffffff168273ffffffffffffffffffffffffffffffffffffffff1614610685578183826040517f5b271ea200000000000000000000000000000000000000000000000000000000815260040161067c93929190612f0f565b60405180910390fd5b600073ffffffffffffffffffffffffffffffffffffffff168473ffffffffffffffffffffffffffffffffffffffff1614156106ec576040517f9577b8b300000000000000000000000000000000000000000000000000000000815260040160405180910390fd5b8373ffffffffffffffffffffffffffffffffffffffff168273ffffffffffffffffffffffffffffffffffffffff161415610727575050610735565b610732848385611114565b50505b5050565b61074161119a565b8051825114610785576040517f08c379a000000000000000000000000000000000000000000000000000000000815260040161077c90612fc9565b60405180910390fd5b60005b82518110156107df576107cf8382815181106107a7576107a6612fe9565b5b60200260200101518383815181106107c2576107c1612fe9565b5b6020026020010151611211565b6107d8816112d9565b9050610788565b505050565b6000600254905090565b6000806003600084815260200190815260200160002060009054906101000a900473ffffffffffffffffffffffffffffffffffffffff169050600073ffffffffffffffffffffffffffffffffffffffff168173ffffffffffffffffffffffffffffffffffffffff16141561089957826040517fae8f9a360000000000000000000000000000000000000000000000000000000081526004016108909190613018565b60405180910390fd5b80915050919050565b6108c233600360001b6001604051806020016040528060008152506112e6565b565b60006108cf826114d4565b6108d98383611521565b905092915050565b600681565b600281565b60606108f6826114d4565b61091160056000848152602001908152602001600020611593565b9050919050565b6060815167ffffffffffffffff81111561093557610934612449565b5b60405190808252806020026020018201604052801561096857816020015b60608152602001906001900390816109535790505b50905060005b82518110156109c85761099a83828151811061098d5761098c612fe9565b5b60200260200101516115b4565b8282815181106109ad576109ac612fe9565b5b60200260200101819052506109c1816112d9565b905061096e565b50919050565b60006109d861110c565b90506109e48185611521565b610a275783816040517f1294d2a9000000000000000000000000000000000000000000000000000000008152600401610a1e929190613033565b60405180910390fd5b610a348686868686611659565b505050505050565b6060610a47826115b4565b9050919050565b83518551141580610a6157508251855114155b80610a6e57508051855114155b15610aa5576040517f93a8311900000000000000000000000000000000000000000000000000000000815260040160405180910390fd5b60005b8551811015610b3957610b26868281518110610ac757610ac6612fe9565b5b6020026020010151868381518110610ae257610ae1612fe9565b5b6020026020010151868481518110610afd57610afc612fe9565b5b602002602001015186868681518110610b1957610b18612fe9565b5b60200260200101516109ce565b8080610b319061308b565b915050610aa8565b505050505050565b610b6133600460001b6001604051806020016040528060008152506112e6565b565b610b8333600260001b6001604051806020016040528060008152506112e6565b565b6000610bce600460008473ffffffffffffffffffffffffffffffffffffffff1673ffffffffffffffffffffffffffffffffffffffff1681526020019081526020016000206118e4565b9050919050565b610bdd61119a565b610be76000610f53565b565b610bf161119a565b610bfb8282611211565b5050565b60008060009054906101000a900473ffffffffffffffffffffffffffffffffffffffff16905090565b600381565b6060610c76600460008473ffffffffffffffffffffffffffffffffffffffff1673ffffffffffffffffffffffffffffffffffffffff1681526020019081526020016000206118f9565b9050919050565b600181565b6000610c8d826107ee565b90506000610c9961110c565b90508073ffffffffffffffffffffffffffffffffffffffff168273ffffffffffffffffffffffffffffffffffffffff1614610d0f578183826040517f5b271ea2000000000000000000000000000000000000000000000000000000008152600401610d0693929190612f0f565b60405180910390fd5b600073ffffffffffffffffffffffffffffffffffffffff168473ffffffffffffffffffffffffffffffffffffffff161415610d76576040517f9577b8b300000000000000000000000000000000000000000000000000000000815260040160405180910390fd5b8373ffffffffffffffffffffffffffffffffffffffff168273ffffffffffffffffffffffffffffffffffffffff161415610db1575050610e35565b610dd6846005600086815260200190815260200160002061190e90919063ffffffff16565b50828273ffffffffffffffffffffffffffffffffffffffff168573ffffffffffffffffffffffffffffffffffffffff167f34b797fc5a526f7bf1d2b5de25f6564fd85ae364e3ee939aee7c1ac27871a98860405160405180910390a450505b5050565b610e5933600160001b6001604051806020016040528060008152506112e6565b565b610e7b33600660001b6001604051806020016040528060008152506112e6565b565b600481565b610ea1336000801b6001604051806020016040528060008152506112e6565b565b610eab61119a565b600073ffffffffffffffffffffffffffffffffffffffff168173ffffffffffffffffffffffffffffffffffffffff161415610f1b576040517f08c379a0000000000000000000000000000000000000000000000000000000008152600401610f1290613146565b60405180910390fd5b610f2481610f53565b50565b600081565b610f4c33600560001b6001604051806020016040528060008152506112e6565b565b600581565b610f5b610bff565b73ffffffffffffffffffffffffffffffffffffffff168173ffffffffffffffffffffffffffffffffffffffff161461104f5760008060009054906101000a900473ffffffffffffffffffffffffffffffffffffffff169050816000806101000a81548173ffffffffffffffffffffffffffffffffffffffff021916908373ffffffffffffffffffffffffffffffffffffffff1602179055508173ffffffffffffffffffffffffffffffffffffffff168173ffffffffffffffffffffffffffffffffffffffff167f8be0079c531659141344cd1fd0a4f28419497f9722a3daafe3b4186f6b6457e060405160405180910390a3505b50565b806001600084815260200190815260200160002090805190602001906110799291906121ed565b50817fcdf4e344c0d23d4cdd0474039d176c55b19d531070dbe17856bfb993a5b5720b60405160405180910390a25050565b600063714df77c60e01b7bffffffffffffffffffffffffffffffffffffffffffffffffffffffff1916827bffffffffffffffffffffffffffffffffffffffffffffffffffffffff1916148061110557506111048261193e565b5b9050919050565b600033905090565b61113983600560008481526020019081526020016000206119a890919063ffffffff16565b50808273ffffffffffffffffffffffffffffffffffffffff168473ffffffffffffffffffffffffffffffffffffffff167f17d5389f6ab6adb2647dfa0aa365c323d37adacc30b33a65310b6158ce1373d560405160405180910390a4505050565b3373ffffffffffffffffffffffffffffffffffffffff166111b9610bff565b73ffffffffffffffffffffffffffffffffffffffff161461120f576040517f08c379a0000000000000000000000000000000000000000000000000000000008152600401611206906131b2565b60405180910390fd5b565b7fdeba1e292f8ba88238e10ab3c7f88bd4be4fac56cad5194b6ecceaf653468af160001b82141561126e576040517f85c169bd00000000000000000000000000000000000000000000000000000000815260040160405180910390fd5b7f2f0a68ab07768e01943a599e73362a0e17a63a72e94dd2e384d2c1d4db93275660001b8214156112cb576040517f76755b3800000000000000000000000000000000000000000000000000000000815260040160405180910390fd5b6112d58282611052565b5050565b6000600182019050919050565b600073ffffffffffffffffffffffffffffffffffffffff168473ffffffffffffffffffffffffffffffffffffffff16141561134d576040517f24ecef4d00000000000000000000000000000000000000000000000000000000815260040160405180910390fd5b611356836119d8565b1561139857826040517f34c7b51100000000000000000000000000000000000000000000000000000000815260040161138f9190613018565b60405180910390fd5b60006113a261110c565b90506113b060008686611a44565b61140184600460008873ffffffffffffffffffffffffffffffffffffffff1673ffffffffffffffffffffffffffffffffffffffff168152602001908152602001600020611ae990919063ffffffff16565b50846003600086815260200190815260200160002060006101000a81548173ffffffffffffffffffffffffffffffffffffffff021916908373ffffffffffffffffffffffffffffffffffffffff160217905550838573ffffffffffffffffffffffffffffffffffffffff16600073ffffffffffffffffffffffffffffffffffffffff167fb333c813a7426a7a11e2b190cad52c44119421594b47f6f32ace6d8c7207b2bf8487876040516114b7939291906131d2565b60405180910390a46114cd600086868686611b00565b5050505050565b6114dd816119d8565b61151e57806040517fae8f9a360000000000000000000000000000000000000000000000000000000081526004016115159190613018565b60405180910390fd5b50565b60008061152d836107ee565b90508073ffffffffffffffffffffffffffffffffffffffff168473ffffffffffffffffffffffffffffffffffffffff16148061158a57506115898460056000868152602001908152602001600020611ca290919063ffffffff16565b5b91505092915050565b606060006115a383600001611cd2565b905060608190508092505050919050565b60606001600083815260200190815260200160002080546115d49061323f565b80601f01602080910402602001604051908101604052809291908181526020018280546116009061323f565b801561164d5780601f106116225761010080835404028352916020019161164d565b820191906000526020600020905b81548152906001019060200180831161163057829003601f168201915b50505050509050919050565b6000611664846107ee565b90508573ffffffffffffffffffffffffffffffffffffffff168173ffffffffffffffffffffffffffffffffffffffff16146116da578084876040517f5b271ea20000000000000000000000000000000000000000000000000000000081526004016116d193929190612f0f565b60405180910390fd5b600073ffffffffffffffffffffffffffffffffffffffff168573ffffffffffffffffffffffffffffffffffffffff161415611741576040517f24ecef4d00000000000000000000000000000000000000000000000000000000815260040160405180910390fd5b600061174b61110c565b9050611758878787611a44565b6117628786611d2e565b6117b385600460008a73ffffffffffffffffffffffffffffffffffffffff1673ffffffffffffffffffffffffffffffffffffffff168152602001908152602001600020611d9b90919063ffffffff16565b5061180585600460008973ffffffffffffffffffffffffffffffffffffffff1673ffffffffffffffffffffffffffffffffffffffff168152602001908152602001600020611ae990919063ffffffff16565b50856003600087815260200190815260200160002060006101000a81548173ffffffffffffffffffffffffffffffffffffffff021916908373ffffffffffffffffffffffffffffffffffffffff160217905550848673ffffffffffffffffffffffffffffffffffffffff168873ffffffffffffffffffffffffffffffffffffffff167fb333c813a7426a7a11e2b190cad52c44119421594b47f6f32ace6d8c7207b2bf8488886040516118ba939291906131d2565b60405180910390a46118ce87878786611db2565b6118db8787878787611b00565b50505050505050565b60006118f282600001611eb0565b9050919050565b606061190782600001611cd2565b9050919050565b6000611936836000018373ffffffffffffffffffffffffffffffffffffffff1660001b611ec1565b905092915050565b60007f01ffc9a7000000000000000000000000000000000000000000000000000000007bffffffffffffffffffffffffffffffffffffffffffffffffffffffff1916827bffffffffffffffffffffffffffffffffffffffffffffffffffffffff1916149050919050565b60006119d0836000018373ffffffffffffffffffffffffffffffffffffffff1660001b611f31565b905092915050565b60008073ffffffffffffffffffffffffffffffffffffffff166003600084815260200190815260200160002060009054906101000a900473ffffffffffffffffffffffffffffffffffffffff1673ffffffffffffffffffffffffffffffffffffffff1614159050919050565b600073ffffffffffffffffffffffffffffffffffffffff168373ffffffffffffffffffffffffffffffffffffffff161415611a9457600160026000828254611a8c9190613271565b925050819055505b600073ffffffffffffffffffffffffffffffffffffffff168273ffffffffffffffffffffffffffffffffffffffff161415611ae457600160026000828254611adc91906132c7565b925050819055505b505050565b6000611af88360000183611ec1565b905092915050565b611b1184636bb56a1460e01b612045565b15611bfc57600085858584604051602001611b2f94939291906133a0565b60405160208183030381529060405290508473ffffffffffffffffffffffffffffffffffffffff16636bb56a147fc7a120a42b6057a0cbed111fbbfbd52fcd96748c04394f77fc2c3adbe0391e0160001b836040518363ffffffff1660e01b8152600401611b9e9291906133ea565b600060405180830381600087803b158015611bb857600080fd5b505af1158015611bcc573d6000803e3d6000fd5b505050506040513d6000823e3d601f19601f82011682018060405250810190611bf5919061348a565b5050611c9b565b81611c9a5760008473ffffffffffffffffffffffffffffffffffffffff163b14611c5d57836040517f4349776d000000000000000000000000000000000000000000000000000000008152600401611c54919061280a565b60405180910390fd5b836040517f03173137000000000000000000000000000000000000000000000000000000008152600401611c91919061280a565b60405180910390fd5b5b5050505050565b6000611cca836000018373ffffffffffffffffffffffffffffffffffffffff1660001b612170565b905092915050565b606081600001805480602002602001604051908101604052809291908181526020018280548015611d2257602002820191906000526020600020905b815481526020019060010190808311611d0e575b50505050509050919050565b60006005600083815260200190815260200160002090506000611d5082612193565b905060005b81811015611d94576000611d736000856121a890919063ffffffff16565b9050611d80818787611114565b508080611d8c9061308b565b915050611d55565b5050505050565b6000611daa8360000183611f31565b905092915050565b611dc384636bb56a1460e01b612045565b15611eaa57600084848484604051602001611de194939291906133a0565b60405160208183030381529060405290508473ffffffffffffffffffffffffffffffffffffffff16636bb56a147f3724c94f0815e936299cca424da4140752198e0beb7931a6e0925d11bc97544c60001b836040518363ffffffff1660e01b8152600401611e509291906133ea565b600060405180830381600087803b158015611e6a57600080fd5b505af1158015611e7e573d6000803e3d6000fd5b505050506040513d6000823e3d601f19601f82011682018060405250810190611ea7919061348a565b50505b50505050565b600081600001805490509050919050565b6000611ecd8383612170565b611f26578260000182908060018154018082558091505060019003906000526020600020016000909190919091505582600001805490508360010160008481526020019081526020016000208190555060019050611f2b565b600090505b92915050565b60008083600101600084815260200190815260200160002054905060008114612039576000600182611f6391906132c7565b9050600060018660000180549050611f7b91906132c7565b9050818114611fea576000866000018281548110611f9c57611f9b612fe9565b5b9060005260206000200154905080876000018481548110611fc057611fbf612fe9565b5b90600052602060002001819055508387600101600083815260200190815260200160002081905550505b85600001805480611ffe57611ffd6134d3565b5b60019003818190600052602060002001600090559055856001016000868152602001908152602001600020600090556001935050505061203f565b60009150505b92915050565b6000806301ffc9a760e01b836040516024016120619190613511565b604051602081830303815290604052907bffffffffffffffffffffffffffffffffffffffffffffffffffffffff19166020820180517bffffffffffffffffffffffffffffffffffffffffffffffffffffffff838183161783525050505090506000808573ffffffffffffffffffffffffffffffffffffffff16617530846040516120eb919061352c565b6000604051808303818686fa925050503d8060008114612127576040519150601f19603f3d011682016040523d82523d6000602084013e61212c565b606091505b5091509150602081511015612147576000935050505061216a565b8180156121645750808060200190518101906121639190613558565b5b93505050505b92915050565b600080836001016000848152602001908152602001600020541415905092915050565b60006121a182600001611eb0565b9050919050565b60006121b783600001836121c2565b60001c905092915050565b60008260000182815481106121da576121d9612fe9565b5b9060005260206000200154905092915050565b8280546121f99061323f565b90600052602060002090601f01602090048101928261221b5760008555612262565b82601f1061223457805160ff1916838001178555612262565b82800160010185558215612262579182015b82811115612261578251825591602001919060010190612246565b5b50905061226f9190612273565b5090565b5b8082111561228c576000816000905550600101612274565b5090565b6000604051905090565b600080fd5b600080fd5b60007fffffffff0000000000000000000000000000000000000000000000000000000082169050919050565b6122d9816122a4565b81146122e457600080fd5b50565b6000813590506122f6816122d0565b92915050565b6000602082840312156123125761231161229a565b5b6000612320848285016122e7565b91505092915050565b60008115159050919050565b61233e81612329565b82525050565b60006020820190506123596000830184612335565b92915050565b600073ffffffffffffffffffffffffffffffffffffffff82169050919050565b600061238a8261235f565b9050919050565b61239a8161237f565b81146123a557600080fd5b50565b6000813590506123b781612391565b92915050565b6000819050919050565b6123d0816123bd565b81146123db57600080fd5b50565b6000813590506123ed816123c7565b92915050565b6000806040838503121561240a5761240961229a565b5b6000612418858286016123a8565b9250506020612429858286016123de565b9150509250929050565b600080fd5b6000601f19601f8301169050919050565b7f4e487b7100000000000000000000000000000000000000000000000000000000600052604160045260246000fd5b61248182612438565b810181811067ffffffffffffffff821117156124a05761249f612449565b5b80604052505050565b60006124b3612290565b90506124bf8282612478565b919050565b600067ffffffffffffffff8211156124df576124de612449565b5b602082029050602081019050919050565b600080fd5b6000612508612503846124c4565b6124a9565b9050808382526020820190506020840283018581111561252b5761252a6124f0565b5b835b81811015612554578061254088826123de565b84526020840193505060208101905061252d565b5050509392505050565b600082601f83011261257357612572612433565b5b81356125838482602086016124f5565b91505092915050565b600067ffffffffffffffff8211156125a7576125a6612449565b5b602082029050602081019050919050565b600080fd5b600067ffffffffffffffff8211156125d8576125d7612449565b5b6125e182612438565b9050602081019050919050565b82818337600083830152505050565b600061261061260b846125bd565b6124a9565b90508281526020810184848401111561262c5761262b6125b8565b5b6126378482856125ee565b509392505050565b600082601f83011261265457612653612433565b5b81356126648482602086016125fd565b91505092915050565b600061268061267b8461258c565b6124a9565b905080838252602082019050602084028301858111156126a3576126a26124f0565b5b835b818110156126ea57803567ffffffffffffffff8111156126c8576126c7612433565b5b8086016126d5898261263f565b855260208501945050506020810190506126a5565b5050509392505050565b600082601f83011261270957612708612433565b5b813561271984826020860161266d565b91505092915050565b600080604083850312156127395761273861229a565b5b600083013567ffffffffffffffff8111156127575761275661229f565b5b6127638582860161255e565b925050602083013567ffffffffffffffff8111156127845761278361229f565b5b612790858286016126f4565b9150509250929050565b6000819050919050565b6127ad8161279a565b82525050565b60006020820190506127c860008301846127a4565b92915050565b6000602082840312156127e4576127e361229a565b5b60006127f2848285016123de565b91505092915050565b6128048161237f565b82525050565b600060208201905061281f60008301846127fb565b92915050565b600081519050919050565b600082825260208201905092915050565b6000819050602082019050919050565b61285a8161237f565b82525050565b600061286c8383612851565b60208301905092915050565b6000602082019050919050565b600061289082612825565b61289a8185612830565b93506128a583612841565b8060005b838110156128d65781516128bd8882612860565b97506128c883612878565b9250506001810190506128a9565b5085935050505092915050565b600060208201905081810360008301526128fd8184612885565b905092915050565b60006020828403121561291b5761291a61229a565b5b600082013567ffffffffffffffff8111156129395761293861229f565b5b6129458482850161255e565b91505092915050565b600081519050919050565b600082825260208201905092915050565b6000819050602082019050919050565b600081519050919050565b600082825260208201905092915050565b60005b838110156129b4578082015181840152602081019050612999565b838111156129c3576000848401525b50505050565b60006129d48261297a565b6129de8185612985565b93506129ee818560208601612996565b6129f781612438565b840191505092915050565b6000612a0e83836129c9565b905092915050565b6000602082019050919050565b6000612a2e8261294e565b612a388185612959565b935083602082028501612a4a8561296a565b8060005b85811015612a865784840389528151612a678582612a02565b9450612a7283612a16565b925060208a01995050600181019050612a4e565b50829750879550505050505092915050565b60006020820190508181036000830152612ab28184612a23565b905092915050565b612ac381612329565b8114612ace57600080fd5b50565b600081359050612ae081612aba565b92915050565b600080600080600060a08688031215612b0257612b0161229a565b5b6000612b10888289016123a8565b9550506020612b21888289016123a8565b9450506040612b32888289016123de565b9350506060612b4388828901612ad1565b925050608086013567ffffffffffffffff811115612b6457612b6361229f565b5b612b708882890161263f565b9150509295509295909350565b600082825260208201905092915050565b6000612b998261297a565b612ba38185612b7d565b9350612bb3818560208601612996565b612bbc81612438565b840191505092915050565b60006020820190508181036000830152612be18184612b8e565b905092915050565b600067ffffffffffffffff821115612c0457612c03612449565b5b602082029050602081019050919050565b6000612c28612c2384612be9565b6124a9565b90508083825260208201905060208402830185811115612c4b57612c4a6124f0565b5b835b81811015612c745780612c6088826123a8565b845260208401935050602081019050612c4d565b5050509392505050565b600082601f830112612c9357612c92612433565b5b8135612ca3848260208601612c15565b91505092915050565b600080600080600060a08688031215612cc857612cc761229a565b5b600086013567ffffffffffffffff811115612ce657612ce561229f565b5b612cf288828901612c7e565b955050602086013567ffffffffffffffff811115612d1357612d1261229f565b5b612d1f88828901612c7e565b945050604086013567ffffffffffffffff811115612d4057612d3f61229f565b5b612d4c8882890161255e565b9350506060612d5d88828901612ad1565b925050608086013567ffffffffffffffff811115612d7e57612d7d61229f565b5b612d8a888289016126f4565b9150509295509295909350565b600060208284031215612dad57612dac61229a565b5b6000612dbb848285016123a8565b91505092915050565b60008060408385031215612ddb57612dda61229a565b5b6000612de9858286016123de565b925050602083013567ffffffffffffffff811115612e0a57612e0961229f565b5b612e168582860161263f565b9150509250929050565b600081519050919050565b600082825260208201905092915050565b6000819050602082019050919050565b612e55816123bd565b82525050565b6000612e678383612e4c565b60208301905092915050565b6000602082019050919050565b6000612e8b82612e20565b612e958185612e2b565b9350612ea083612e3c565b8060005b83811015612ed1578151612eb88882612e5b565b9750612ec383612e73565b925050600181019050612ea4565b5085935050505092915050565b60006020820190508181036000830152612ef88184612e80565b905092915050565b612f09816123bd565b82525050565b6000606082019050612f2460008301866127fb565b612f316020830185612f00565b612f3e60408301846127fb565b949350505050565b600082825260208201905092915050565b7f4b657973206c656e677468206e6f7420657175616c20746f2076616c7565732060008201527f6c656e6774680000000000000000000000000000000000000000000000000000602082015250565b6000612fb3602683612f46565b9150612fbe82612f57565b604082019050919050565b60006020820190508181036000830152612fe281612fa6565b9050919050565b7f4e487b7100000000000000000000000000000000000000000000000000000000600052603260045260246000fd5b600060208201905061302d6000830184612f00565b92915050565b60006040820190506130486000830185612f00565b61305560208301846127fb565b9392505050565b7f4e487b7100000000000000000000000000000000000000000000000000000000600052601160045260246000fd5b60006130968261279a565b91507fffffffffffffffffffffffffffffffffffffffffffffffffffffffffffffffff8214156130c9576130c861305c565b5b600182019050919050565b7f4f776e61626c653a206e6577206f776e657220697320746865207a65726f206160008201527f6464726573730000000000000000000000000000000000000000000000000000602082015250565b6000613130602683612f46565b915061313b826130d4565b604082019050919050565b6000602082019050818103600083015261315f81613123565b9050919050565b7f4f776e61626c653a2063616c6c6572206973206e6f7420746865206f776e6572600082015250565b600061319c602083612f46565b91506131a782613166565b602082019050919050565b600060208201905081810360008301526131cb8161318f565b9050919050565b60006060820190506131e760008301866127fb565b6131f46020830185612335565b81810360408301526132068184612b8e565b9050949350505050565b7f4e487b7100000000000000000000000000000000000000000000000000000000600052602260045260246000fd5b6000600282049050600182168061325757607f821691505b6020821081141561326b5761326a613210565b5b50919050565b600061327c8261279a565b91506132878361279a565b9250827fffffffffffffffffffffffffffffffffffffffffffffffffffffffffffffffff038211156132bc576132bb61305c565b5b828201905092915050565b60006132d28261279a565b91506132dd8361279a565b9250828210156132f0576132ef61305c565b5b828203905092915050565b60008160601b9050919050565b6000613313826132fb565b9050919050565b600061332582613308565b9050919050565b61333d6133388261237f565b61331a565b82525050565b6000819050919050565b61335e613359826123bd565b613343565b82525050565b600081905092915050565b600061337a8261297a565b6133848185613364565b9350613394818560208601612996565b80840191505092915050565b60006133ac828761332c565b6014820191506133bc828661332c565b6014820191506133cc828561334d565b6020820191506133dc828461336f565b915081905095945050505050565b60006040820190506133ff6000830185612f00565b81810360208301526134118184612b8e565b90509392505050565b600061342d613428846125bd565b6124a9565b905082815260208101848484011115613449576134486125b8565b5b613454848285612996565b509392505050565b600082601f83011261347157613470612433565b5b815161348184826020860161341a565b91505092915050565b6000602082840312156134a05761349f61229a565b5b600082015167ffffffffffffffff8111156134be576134bd61229f565b5b6134ca8482850161345c565b91505092915050565b7f4e487b7100000000000000000000000000000000000000000000000000000000600052603160045260246000fd5b61350b816122a4565b82525050565b60006020820190506135266000830184613502565b92915050565b6000613538828461336f565b915081905092915050565b60008151905061355281612aba565b92915050565b60006020828403121561356e5761356d61229a565b5b600061357c84828501613543565b9150509291505056fea26469706673582212204f5e0b1e30e0230482a6533c78403b00de6b4f8594e74b1ec25f621f68d9ec5f64736f6c63430008090033",
  "linkReferences": {},
  "deployedLinkReferences": {}
}